:1000000000500020192400003F800000ED23000074
:10001000ED230000ED230000ED23000000000000B0
:10002000000000000000000000000000611F000050
:10003000ED23000000000000D11E0000ED230000B1
:100040001D2100001D2100001D2100001D210000B8
:100050001D2100001D2100001D2100001D210000A8
:100060001D2100001D2100001D2100001D21000098
:100070001D2100001D2100001D2100001D21000088
:100080001D2100001D2100001D2100001D21000078
:100090001D2100001D2100001D2100001D21000068
:1000A0001D2100001D2100001D2100001D21000058
:1000B0001D2100001D2100001D2100001D21000048
:1000C0001D2100001D2100001D2100001D21000038
:1000D0001D2100001D2100001D2100001D21000028
:1000E0001D2100001D2100001D2100001D21000018
:1000F0001D2100001D2100001D2100001D21000008
:1001000053B94AB9002908BF00281CBF4FF0FF317E
:100110004FF0FF3000F00CB8ADF1080C6DE904CEE3
:1001200000F008F8DDF804E0DDE9022304B07047D0
:10013000704700BF2DE9F04786468C460846089E6A
:10014000154674461946002B40F0C2808542B2FA2B
:1001500082F245D94AB1C2F1200300FA02FC2EFA1C
:1001600003F3954043EA0C0C94404FEA154EA8B2B5
:10017000BCFBFEF8230C0EFB18CC08FB00F943EA8D
:100180000C43994528D9EB1808F1FF3704D299455B
:1001900002D9A8F102072B44A3EB0903A4B2B3FBD5
:1001A000FEFC0EFB1C330CFB00F044EA0344A042AF
:1001B00014D92C190CF1FF3304D2A04202D9ACF1AE
:1001C00002032C44241A43EA07401EB1D440002302
:1001D00034607360BDE8F0874746DDE76346F1E7CA
:1001E00092BB431B01214FEA154EAFB2B3FBFEFC9D
:1001F000200C0EFB1C330CFB07F840EA0343984528
:1002000062D9EB180CF1FF3004D2984502D9ACF159
:1002100002002B44A3EB0803A4B2B3FBFEFC0EFBCD
:100220001C330CFB07F744EA0344A7424ED92C19B0
:100230000CF1FF3304D2A74202D9ACF102032C44E3
:10024000E41B43EA0040C0E7C2F1200320FA03F1B7
:10025000954090402EFA03F303434FEA154EAFB298
:10026000B1FBFEFC0EFB1C10190C0CFB07F841EA5D
:100270000041884504FA02F422D969180CF1FF30D4
:1002800004D2884502D9ACF102002944A1EB08014F
:100290009BB2B1FBFEFC0EFB1C110CFB07F743EA03
:1002A00001439F420ED9EB180CF1FF3104D29F425B
:1002B00002D9ACF102012B44DB1B41EA004192E779
:1002C0006046E3E76146F7E76046A3E76346B7E7C2
:1002D000834206D916B9002108467BE7C6E900E04B
:1002E000F9E7B3FA83F78FB9834201D3724508D88F
:1002F000BEEB020460EB030301209C461EB9002103
:1003000068E73846FAE7C6E9004CF8E7C7F1200C81
:10031000BB4022FA0CF41C432EFA0CF120FA0CF329
:10032000B84001434FEA14490EFA07F5B3FBF9F858
:100330001FFA84FE09FB18300B0C08FB0EFA43EA87
:1003400000439A4502FA07F240D9E31808F1FF305A
:1003500004D29A4502D9A8F102002344A3EB0A0370
:1003600089B2B3FBF9F809FB183308FB0EFE41EA2A
:1003700003418E452CD9611808F1FF3304D28E4514
:1003800002D9A8F10203214443EA0040A0FB0298ED
:10039000A1EB0E014145CE46434602D306D14D4561
:1003A00004D2B9EB020E68EB04030138002EA6D08C
:1003B000B5EB0E0261EB030101FA0CFC22FA07F324
:1003C0004CEA0303F940C6E9003198E74046C5E727
:1003D0004346D9E7F0B52E4B2E4AC3F800262E48E7
:1003E000C3F8042685B0C3F808264921C3F80C26B3
:1003F000C3F81026C3F81426C3F81826C3F81C2621
:1004000007F091FD07F05CF901A800F089FC234B8F
:100410001B68834204D02248452107F084FDFEE793
:10042000039A2048492107F07EFD1F48492107F023
:100430007AFD4FF44041002008F043FA044620B111
:100440001A48452107F06FFDFEE769469DF8080050
:1004500000F030F8009B039D1D44019B1E8903F0B2
:100460004DFBAF1900F0AEFF00F082FF02F010F874
:10047000AB5983F3088884F31488BFF36F8FBFF3FD
:100480006F8F7B6898470A48452107F04CFDFEE7CF
:10049000000001403546526E00970000A80300207E
:1004A000199700003C9700006B97000090970000A0
:1004B000C397000008B5024638B10548002345211E
:1004C00007F031FD6FF0150008BD0860FCE700BFC4
:1004D000E697000021B1012906D06FF015007047A2
:1004E000044B53F830007047024B03EBC0035868CD
:1004F000704700BFF89200002DE9F04F7E4FDDB04D
:10050000DDE9688914461D46DDF8A8B13E6800F0B3
:10051000F9FE7A4B0122C3F800253CA805F0F4FF50
:10052000B8F1000F07D0B9F1000F04DD4A4641468B
:100530003CA807F0E9FB23896289D4F80CA0134496
:100540009A444FF00008C24551D80FA93CA806F0C4
:100550004DF86A4B0022C3F80025C3F80025BBF113
:10056000000F04D020220FA9584607F086FD002373
:1005700000932A464FF6FF73214609A807F0A1F819
:100580000390002844D128460E9C00F079F984425B
:100590003ED8DFF870B1DFF864914FF0FF340DF111
:1005A0001E0307AA08A909A807F0D9F800282FDB1D
:1005B00040F09B80BDF81EA0BAF1100F31D1BDF8FC
:1005C0001C80B8F1200F23D1089943463CAA284645
:1005D00007F0B7FCE0B942463CA90FA807F037F98D
:1005E000474B1B68834213D101230393D7E7679BD3
:1005F000669AAAEB0809994528BF99464B46414699
:10060000284607F09EFC28B13C4B0022C3F8002589
:100610003E686DE066994A463CA807F075FBC84401
:1006200091E7BAF1010F3FD1BDF81C30202BEFD874
:1006300008993CAA284607F084FC04460028E7D124
:100640009DF81C300493202B0AD8DBF80030DFF82B
:10065000B8800593059B9C4205DB0023C9F8003553
:100660004FF0FF349BE700F04DFEC9F800A51FA82E
:1006700005F04AFFD8F8042058F8081B12681FA894
:1006800007F042FB17A91FA805F0B0FF0022C9F828
:100690000025049A3CA917A807F0DFFC10B9C9F897
:1006A00000057CE70134D5E7BAF1220F7FF477AF7C
:1006B000631C3FF474AFDBF80030A342D0DDBDF81B
:1006C0001C30802BA4D808993CAA284607F039FC96
:1006D00000289DD1E4B2BDF81C3000943CAA202132
:1006E0000FA800F013F80646BAE7039B002B8FD043
:1006F00030465DB0BDE8F08F0400002000A002503D
:10070000A803002000930000049300002DE9F047A7
:1007100096B016461D469DF87820374BDFF8E880E6
:1007200053F83210019103EBC20307465B68D8F817
:100730000090186802AA0144302301A807F072FA59
:10074000002851D1DDE901431C4403AA06AB214630
:1007500001A807F08FFA002846D1049A072A43D14E
:100760002649059807F079FC00283DD1079A082A08
:100770003AD12349089807F070FCA8BB02AA214689
:1007800001A807F063FA78BBDDE901A30AEB0302D5
:10079000944229D1412B27D13544302303AA29463D
:1007A00002A8029607F03EFAE0B9DDE902321344EE
:1007B0009D4217D32A4602A906A807F01CF888B95B
:1007C0002A4602A90EA807F016F858B99AF8003080
:1007D000042B07D1202306AA0AF10101384600F0B4
:1007E000A9FD28B1D8F80090484616B0BDE8F087BA
:1007F000044BD3F80090F7E704930000159800002D
:100800000C980000A803002004000020094A0B787F
:10081000400052F820108B4209D0013052F82000DD
:10082000834214BF4FF0FF304FF4C07070474FF455
:10083000C07070470C9300001FB50F4B13F83000C9
:100840000C4601F04DF950B92068816810236A46C2
:10085000103907F076FB28B1206807F071FB4FF0E4
:10086000FF3006E005491022684607F0F6FB002835
:10087000F2D104B010BD00BF0C930000F096000050
:1008800013B5044606F0EAFF6A460146204606F024
:10089000FEFE30B10448452107F045FB002002B0C0
:1008A00010BD0098FBE700BF1D9800002DE9F04146
:1008B000364B88B0064600200D461C68FFF70AFE3E
:1008C00006A9C0B201F00CF9002858D12946FFF75B
:1008D00001FE2C2407A9C0B204FB056401F000F955
:1008E000002833D02C276F4306EB0708069BD8F867
:1008F000101011F0100138D14FF480720192244A87
:100900000092CDE90311224602910846FFF7F4FD5B
:100910000446204BF25906989A420CD1D8F80C2084
:10092000B8F808309B1806D28268934203D21A4B5B
:100930001B68A34220D035B38268002107F02BFB4F
:10094000164A1748452107F0EEFA13E0079807F01A
:100950003FFB0746079807F0F3FA631EE21C13F803
:10096000011FB942BED19342F9D11DB1069930465B
:1009700007F05EF80B4B1C68069807F0E1FA20467A
:1009800008B0BDE8F081084ADBE700BF04000020A2
:10099000C81800203DB8F396A80300206098000016
:1009A0006A98000000000020589800007FB50D46AE
:1009B000044600212846CDE9021106F0F8FF28B3CD
:1009C0002368194EB34203D103AA204606F084FFE0
:1009D000E36AB34204D102AA0121204606F07CFF5B
:1009E000DDE90232934288BF0393039BAB60039A15
:1009F0002946204600F08EFB0C4B1A68002A03DDC6
:100A00000B48572107F08FFA04B070BD01A9FFF71A
:100A100013FF019805F1080106F02BFFAB68019860
:100A2000039307F08DFAE2E73DB8F3960C1000202F
:100A3000929800002DE9F84FDFF878B01B4C1C4D60
:100A4000884691469A4600260B9B9E4201D3002081
:100A50000FE00B9B174A9F1BB7F5806F28BF4FF421
:100A600080673B4606EB0A01404607F06AFA10B180
:100A70000120BDE8F88F0A993B465A46711848464E
:100A800007F074FA0028F3D1C4F800563E44C4F8C5
:100A90000456C4F80856C4F80C56C4F81056C4F8E6
:100AA0001456C4F81856C4F81C56CDE7000001408F
:100AB0003546526EAC0B0020F0B5904B43620E46AB
:100AC0008F4B0365002187B004460846FFF702FDFF
:100AD00004F12001C0B201F003F801210020FFF76A
:100AE000F9FC04F14C01C0B200F0FAFF204606F018
:100AF00034FF054668B900221146204606F0D6FEAE
:100B0000054600B37F480022572107F00CFA012365
:100B100090E07D488022572107F005FA01239D428D
:100B200084F85830E7D194F858308DF80F30042B02
:100B300000F28380012B00F2878000F09A80FF236F
:100B400084F8583095E0204600F0FCF90028DED00B
:100B500002A806F023FF0146204606F0BEFF18B1AA
:100B60006A482A465721D0E702A806F020FF80F005
:100B7000010102AAC9B2204606F098FE02460028EA
:100B8000C0D102A806F013FF054660BB02A92046AB
:100B9000FFF70CFF9DF80F3084F85830033B012B12
:100BA00006D8284600F0E2F810B1FF2384F8583048
:100BB0009DF80F30023B022B0BD8002000F0C0F84C
:100BC00038B1FF2384F858305148452107F0ABF97C
:100BD000FEE794F85830FF2BF6D002AA00212046F9
:100BE00006F064FE93E79DF80F70012F17D11046B1
:100BF00003F030F8831E022B05460DD839462046F7
:100C0000FFF754FE434B1B68984205D0424B1D68CA
:100C1000A84214BF0525012584F8585083E7012117
:100C20002046FFF743FE3B4B1B6898420CBF9DF8E4
:100C30000F30052384F8583075E7052B7FF47FAF1C
:100C4000002000F093F811E002A92046FFF7AEFE65
:100C500094F85830DA1E012A14D8002000F086F8E3
:100C600000287FF46CAF002000F06AF800287FF4C1
:100C700066AF94F85830FF2B07D12548452107F07F
:100C800052F9FEE7022BF4D1EDE70021012B234DB1
:100C9000019113D002AA204606F008FE70B12D681B
:100CA0001022002102A807F0F3F9E06C07F048F9E0
:100CB000206A07F045F9284607B0F0BD002120461C
:100CC000FFF7F4FD134F3B689842E8D12B68984238
:100CD000E5D0114B1B689842E1D0019B0133019391
:100CE000019B012B00D0FEE7206A06F0CEFC30719C
:100CF000236A5B6834603D68B360D1E7AC070020CD
:100D0000AC03002003990000C19800002F99000057
:100D100059990000A80300200000002004000020D2
:100D200038B5064D044660220021284607F0B0F988
:100D300021462846FFF7C0FE38BD00BFAC0F00209B
:100D400013B5094B01A913F8300000F0C9FE48B9EA
:100D5000019807F073FE0446019807F0F1F8204669
:100D600002B010BD0124FAE7149300001FB50F4B29
:100D700001A913F8300000F0B3FEA8B9019802A948
:100D800002F012FF044668B99DF80B30032B03D123
:100D9000019807F021FE0446019807F0D1F820469B
:100DA00004B010BD0124F7E70124F8E71493000014
:100DB0002DE9F34106460C4617461D460BB90026A1
:100DC00028E0184606F0F3FD0028F8D16946FFF741
:100DD00033FD009838B90124009807F0B1F8204697
:100DE00002B0BDE8F08101A906F043FD0028F2D170
:100DF000009807F0A5F83046019906F0AAFE736A3C
:100E00005E686B79012B21D1002CD8D12B688342ED
:100E100098BF002621460020FFF75CFB6946C0B260
:100E200000F05EFE0028D6D1009820233A463146D5
:100E300007F087F804460028CDD1002DCCD03C68BF
:100E40000D4BE41A18BF4FF0FF34C5E7022BB6D1A3
:100E50002B68012B05D98342B1D8B4FA84F4640914
:100E6000ADE7ACD1002CD5D0012CA8D12C79023C17
:100E700018BF0124A3E700BF3DB8F3962DE9F04F5A
:100E8000074685B00C46014600201646FFF7BEFC1B
:100E9000051E50DB3846E46D06F0E0FC5FFA84F98D
:100EA0006B1E09FB03084FF0000A4FF0010B4FF0D7
:100EB000FF349DB9BAF1010F03DD2148452107F048
:100EC00032F8631C06D07F2C2ADC013440F2011377
:100ED0003460B380284605B0BDE8F08F6B1E0093E8
:100EE0000DF10F0201234146384607F02AF8031E90
:100EF000019322DB01220DF10F01384607F007FDB7
:100F0000019B40B15B4501D00AF1010A009DA8EBAD
:100F100009089B46CDE7B4F1FF3F08BF2C46F5E733
:100F20000223803C7371631004F001040133013427
:100F300033603471CEE70725CCE70125CAE700BF4F
:100F40006599000038B5816A426D914208D0531C02
:100F50008B4205D01348572106F0E5FF002038BD2D
:100F600080291CD910485721F6E7446A056D04EB27
:100F7000C30405EBC30564686D68AC4202D00B483E
:100F80005721E9E701339A42EFD1914205D9436AEB
:100F900003EBC2035B68A342F1D10120DFE700232A
:100FA0001C46F0E788990000C0990000EF99000006
:100FB00000B589B004A9022007F01BFD9DF81020A0
:100FC000012A41D0254B2649032A08BF0B469DF82C
:100FD000132002929DF8122001929DF811202148C1
:100FE00000924921204A06F09EFF06A9052007F03D
:100FF00000FD9DF81820012A28D0184B1849032A13
:1010000008BF0B469DF81B2002929DF81A20019202
:101010009DF8192000921348144A492106F083FFD5
:101020009DF81030012B13D19DF81230032B0FD1F6
:101030009DF81830012B0BD00D48492106F073FFA5
:10104000022009B05DF804FB0A4BC0E7094BD9E761
:101050000948492106F067FF0020F2E71B9A0000CB
:10106000249A0000389A00002A9A0000799A000019
:10107000899A00001F9A0000A89A000070B54B687A
:1010800014461E4A03F0FF23934286B006460D46DF
:101090002FD10B68012B2CD104A9204602F084FD2E
:1010A0009DF81020012A26D0154B1649032A08BFA7
:1010B0000B469DF8132002929DF8122001929DF894
:1010C000112000921048114A492106F02CFF9DF88A
:1010D0001030032B0DD12146304606F0A9FC2046E6
:1010E00007F07AFCA968204606F0D1FB204602F002
:1010F0003BFD06B070BD064BDBE700BF00010004FE
:101100001B9A0000249A0000389A0000799A000087
:101110001F9A00002DE9F04F164689B005460C468F
:101120007448492106F0FFFE3146284606F011FDBD
:101130006B6A824620465E6806F039FCE8B1E86DCD
:1011400006F087FBAF6A0023013F3344834201D29C
:10115000013FFAE7BA4510D36748572106F0E3FE8E
:1011600007FB06F365480AFB0662572106F0DBFE23
:101170000123E37109B0BDE8F08F06A9022000F059
:10118000AFFC07A9052000F0ABFC079A21462846D2
:10119000FFF774FF6379012B4BD1DFF864B1574639
:1011A00041E02268C2F1010353449F423AD86B6A7E
:1011B000196853F8370003EBC703012A53F8083CBA
:1011C000A3EB0103A0EB0109049311D1079B039347
:1011D000E368022B08D04146284606F029FC224647
:1011E0004146284606F05AFC0399284606F020FCA2
:1011F00032464946404606F019FC049B42464146A9
:10120000CDE900962846FFF715FC2146284606F052
:10121000DBFB23680133236020B1DBF800300133AE
:10122000CBF80030013FDDF81880002FB9D1012341
:101230002360022363710127BA45DDF8189006D2B6
:10124000484606F07DFE079806F07AFE92E723688E
:101250009F424DD36A6ADDF81CB052F837100491F2
:10126000FB00083B11680391D1582A6DD0581368D0
:10127000A0EB03082379012B38D1039B3246C91A0E
:101280004846059106F0D2FB0599009143464A462F
:10129000594601962846FFF7CDFB2146284606F021
:1012A00093FB0223237118B1154A136801331360AD
:1012B00032464146584606F0B9FBDDE9032349466C
:1012C0009B1ACDE900865A462846FFF7B3FB214614
:1012D000284606F079FB236801332360012323713C
:1012E00030B1074A13680133136001E0022BDFD0ED
:1012F0000137A1E7BF9A0000E89A0000179B0000A1
:101300000C10002070B5094D2B780BB1002070BD7A
:10131000074C0126C4F8006505F098F918B92E703D
:10132000C4F80005F2E74FF0FF30F0E7C8190020DD
:1013300000A002502DE9F041DFF83080ACB01F462C
:1013400006460C461546FFF7DDFF0123C8F80035B9
:101350002A4633460097214603A807F028FE0023BB
:10136000C8F800352CB0BDE8F08100BF00A00250E5
:10137000BFF36F8F72B6124B4FF0FF32C3F880206D
:10138000C3F88420C3F88820C3F88C20C3F89020C9
:10139000C3F89420C3F89820C3F89C20C3F8802198
:1013A000C3F88421C3F88821C3F88C21C3F89021A5
:1013B000C3F89421C3F89821C3F89C21704700BF5B
:1013C00000E100E0164A4FF0FF3301215160C2F8FE
:1013D0004833C2F8083302F5C0425160C2F84833BE
:1013E000C2F8083302F598325160C2F84833C2F8A7
:1013F0000833A2F508320021C2F80015C2F80833FC
:1014000002F51832C2F80015C2F80833A2F51042EE
:10141000C2F808354FF08042C2F80833704700BF69
:1014200000B00040014B1B68184700BF08000020B7
:1014300007B50B46002102460091034800F014F95D
:1014400003B05DF804FB00BF251400002DE9F04750
:10145000058B04462807904611D4022905F007059C
:1014600040F0CD80204606F083FC78B10138218B16
:10147000042811D8DFE800F0C3106D85950001291C
:101480000CBF45F0100545F02005258388F3118831
:10149000BFF36F8FBDE8F08701F0070AAA4500F09F
:1014A000A6800027B9463E46A368002B00F0BD8009
:1014B00041F00801218388F31188BFF36F8FA16881
:1014C000002900F0BB800D68002900F0B780D1F83A
:1014D0000480334652462046C047002D76D02B6804
:1014E00029461D46F0E701F007035A1F012A1BD8C1
:1014F000002221F00701062B276889B2C4E90022E7
:1015000009D13B4603E0628B013262831B68002BEA
:10151000F9D141F002012183204606F029FC002880
:101520007BD041F0200177E0042B0AD121F00701A4
:1015300089B22183204606F01BFC10B141F0200146
:101540002183218B01F0070AAA4550D00027B94614
:10155000AAE7236921F0070141F00601062DD3F81F
:10156000009021832DD1B9F1000F40D041F0080146
:10157000218388F31188BFF36F8F3A492046C8470B
:1015800029E021F00701236941F0040189B2042D0B
:10159000D3F804902183E6D000273E464FF0040A9A
:1015A00082E721F00701236941F0050189B2052D89
:1015B000D3F808902183D6D000273E464FF0050A85
:1015C00072E700273E464FF0060A6DE72B4687E795
:1015D000B9F1000FD1D14FF02003EFF3118883F35D
:1015E0001288BFF36F8F238B23F008032383258B8F
:1015F000EA062ED525F01003238305F0070566695A
:10160000218B002EBFF66FAF00232768C4E900339B
:1016100021F0070141F001012183218B01F0070A2C
:10162000AA454FF000097FF43FAF002F9BD041F057
:101630000801218388F31188BFF36F8F002FC7D073
:101640003D68394633465246204606F0BDFB2F46DC
:10165000F4E7AB067FF51AAF25F02003238305F0EE
:101660000705FFE6F57D00002DE9F04F8DB01D4622
:10167000531E8246019103934FF00009039B587853
:10168000252803F1010419D11E4600204FF0FF3830
:10169000023603460290444631780396392954D8DD
:1016A0001F2914D8002900F0EE8101992520D04788
:1016B00001993078D04709F10209DFE7002800F0EE
:1016C000E2810199D04709F101090394D6E7A1F11C
:1016D0002002192AE9D801A757F822F0451700007F
:1016E000AB160000AB16000045170000AB1600005B
:1016F000C5170000AB160000AB160000AB160000CB
:10170000AB1600001118000045170000AB160000D2
:1017100025180000D1170000AB160000DF170000ED
:10172000FF170000FF170000FF170000FF17000061
:10173000FF170000FF170000FF170000FF17000051
:10174000FF17000008460136A6E7582900F0EB8095
:10175000A1F16302D7B2172FA7D8172AA5D801A7DE
:1017600057F822F0CD1900004B180000AB1600000E
:10177000AB160000AB1600002B1800004B18000041
:10178000AB160000AB1600002B180000AB160000D3
:10179000AB160000AB16000001190000AB160000EC
:1017A000AB160000A1190000AB1600004B1800009A
:1017B000AB160000AB16000001190000AB160000CC
:1017C0002B18000001992520D04709F1010955E7A0
:1017D000029A02F0FE0202924FF00008B3E7002CDA
:1017E0000DDAB8F1000F0DDA029A002A00F04381F9
:1017F00024EAE4740A2202FB0414303CA3E7B8F1A3
:10180000000FF5DB0A2202FB0812A2F130089AE76A
:10181000B8F1000F55F8042B80F22F81002A80F2D6
:101820002E815442022202928DE7682903D1682B4F
:1018300006D1482387E76C2902D16C2B00F0218167
:10184000002B7FF432AF0B467DE77A2B06D175294A
:1018500055F8046B14D14FF0000B0CE06C2BF6D054
:101860004C2BF4D1073525F007037529D3E9006B1C
:1018700003F1080506D120283BD1854F013C09E042
:101880004FEAE67BBBF1000FF5DA7642814F6BEB56
:101890004B0B013C0DF12D030593002304933046BF
:1018A00059460A220023FEF72BFC059B303203F831
:1018B000012DB4460593049B5A46BCF10A0F8B4692
:1018C00072F1000203F1FF3106460491E7D2C3F141
:1018D000010B30330DEB0306B8F1000FA6F104063F
:1018E0006DDA029BD9077DD4A8EB0B03A4EB0B04A4
:1018F00013E02B280ABF684F684F04F1FF34C9E793
:1019000070290FD155F8042B0023FAB9634F644EA8
:10191000053C6FF004034FF0050B029A920770D458
:10192000A04666E078216C2B03D155F8042B0023E8
:1019300008E04C2BF9D1073525F007031D465B68FD
:1019400055F8082B232825D1880621D5554F023C70
:1019500001F06001A1F1390B0DF12D0E002602F00E
:101960000F01092988BF594430310EF8011D102A92
:101970004FEA121141EA03714FEA131C73F100039D
:1019800006F1FF3008D2C6F1010B06F13003A1E7E2
:10199000454FDCE7414FDBE706460A466346DEE794
:1019A00055F8046B304606F051FBB8F1000F834642
:1019B00002DB4045A8BFC346384F4FF00008A8EBF4
:1019C0000B03002B92DDA4EB0804A6E755F8043BBB
:1019D0008DF81830314F013C4FF0FF334FF0010BC1
:1019E00006AE9AE7A046EAE7029301992020D04785
:1019F000029BB8F10108F7D524EAE472013C914456
:101A0000A41AB84606E0049302920199D047029ABC
:101A1000049B9046424612F8010B0028F3D11A4667
:101A2000013A15D5002BACBFC7EB03077F425B46DD
:101A3000013B15D5BBF1000FA8BF5F444F442646BC
:101A4000013E14D5002CA8BF3F1907EB080915E685
:101A50000493029201993020D047049B029ADFE759
:101A60000293019916F8010BD047029BE0E7019918
:101A70002020D047E4E70122D5E6904663E61446ED
:101A800061E64C235FE648460DB0BDE8F08F00BF2D
:101A9000B69B0000B49B0000B89B00006499000056
:101AA000C09B0000BA9B0000BD9B000008B5044627
:101AB0004FF02002EFF3118382F31288BFF36F8F90
:101AC00002F01CF8204600F0D1FC034806F039F97A
:101AD00000F050F9FCE700BFC69B000002F04CB9D3
:101AE00070B5114B1C680D46DCB1104B1968002312
:101AF0008B4202DB6FF0010070BD224612F8106BC2
:101B0000864202D001331446F2E7E06810B96FF064
:101B10001200F1E707F0EEF80028F8D02C60002062
:101B2000EAE76FF00C00E7E70C00002020930000CC
:101B300070B588B005460C46C0B269461646FFF738
:101B4000CFFF00281BDB0098C8B14368029383686D
:101B500022680195CDE903360023CDE906230593DC
:101B6000C56806F0EDF96DB12846084901AA06F0EE
:101B70007EFC079808B9059B236008B070BD6FF024
:101B80001500FAE76FF01200F7E700BFDF7F0000F3
:101B9000014804F0CBB900BF9493000038B5044667
:101BA00018B90F4B0F485B6898476168B1F5683FFB
:101BB00010D0B1F5680F0DD00B4DA9420AD011F429
:101BC0006861206807D00146084807F0E1F8002363
:101BD0002360656038BD142206F05AFAF9E700BFA9
:101BE00028010020EF9B00002C5F5CA9101500204D
:101BF00008B520B34368B3F5683F10D101220368EC
:101C0000BFF35B8F53E8001F002903D143E8002096
:101C10000028F7D1BFF35B8F0DD1002008BD094A22
:101C200093420AD000684FF0FF324FF0FF3303F0C9
:101C30006DFB0028F1D00448F0E70448EEE76FF4AC
:101C4000E040EBE72C5F5CA9E98FFFFFEA8FFFFF25
:101C500008B5D8B14368B3F5683F10D100220368D6
:101C6000BFF35B8F53E8001F012903D143E8002035
:101C70000028F7D1BFF35B8F0BD1002008BD074AC6
:101C8000934208D0006803F0BBFBF6E76FF4E04036
:101C9000F4E70348F2E70348F0E700BF2C5F5CA9D4
:101CA000E98FFFFFEA8FFFFF10B5044618B91D4BFF
:101CB0001D485B6898476368B3F5683F2FD0B3F55C
:101CC000680F2CD0194A934219D1236803BB1848D6
:101CD0004FF0FF324FF0FF33214603F05BFA08B9B3
:101CE00023681BB90F4B13485B6898472068142280
:101CF000002106F0CDF94FF46863636008E0B3F5A6
:101D0000683F0DD83A2B03D040F6BA629342DED139
:101D1000206807F07DF8636843F03A03636010BD04
:101D2000054AF3E728010020EF9B00002C5F5CA927
:101D300010150020159C00003A00003A08B506492D
:101D400006484023142207F015F8BDE8084004496E
:101D5000044804F05DB900BF1010002010150020E9
:101D60009C930000B0930000014910220A60704764
:101D700010ED00E072B6404080F31188BFF36F8F22
:101D8000BFF34F8F30BF62B6BFF36F8F704700BF96
:101D900072B6494081F31188BFF34F8F20BF80F3A3
:101DA000118862B6704700BF40B2002807DB044AC2
:101DB0004109012300F01F00834042F821307047A1
:101DC00000E100E040B200280CDB4309064900F0C6
:101DD0001F0020330122824041F82320BFF34F8FA0
:101DE000BFF36F8F704700BF00E100E0054B420971
:101DF00000F01F0053F82220012303FA00F01040E6
:101E0000704700BF00E100E040B20028A8BF00F129
:101E1000604001F10101B8BF064B4FEA4111ACBF70
:101E200000F5614000F00F00C9B2B4BF195480F84A
:101E30000013704714ED00E030BFFFF7FDBF00BF97
:101E4000144A08B5144B22F07F029A60BFF34F8FFB
:101E5000BFF36F8FD3F8882022F47002C3F8882074
:101E6000D3F8882042F4A002C3F888204FF0404203
:101E7000C3F83422BFF34F8FBFF36F8F0023E1EE1F
:101E8000103A03F0B5F803F0A7FE00F0B9FA03F03A
:101E900001F900BF0000000000ED00E0094A0A4916
:101EA000936809689967094958674B6843F08053FC
:101EB0004B60002383F31188BFF36F8F9368986F93
:101EC000704700BFB81600206095000000ED00E0EC
:101ED00021498A6882F8BDE04FF030001044EFF3EA
:101EE000098C80E8F01F1EF0100F03D102F17C0076
:101EF00080EC108A202080F31288BFF36F8F174F79
:101F00004FF000668A698A603E6092F9BDE0506FCA
:101F10000023536780F311881EF0100F03D00023B5
:101F2000E1EE103A03E002F17C0090EC108AEFF34E
:101F3000148323F0040383F31488BFF36F8F04B575
:101F4000104600F00BFBBDE8044002F1300090E8C1
:101F5000F01F8CF309887047B816002004ED00E0EC
:101F60001EF0040F0CBFEFF30880EFF309808169C6
:101F700011F8021C0229FFD001B506F058F801BD86
:101F8000017B890705D5416E40314166816E40393C
:101F9000816642F8203C009B42F81C3C0F49019BA3
:101FA00042F8183C029B42F8143C21F001014FF02A
:101FB000807342F8043C42F8081C00234367037B0B
:101FC00013F0020FA2F120024FF6085308BF4FF49E
:101FD0007D430265C0F8BC30704700BF5D7D0000E6
:101FE000037B13F0020F194B03D190F8BD20D206EA
:101FF00017D45A6B42F080425A63D0F8BC301907AC
:1020000009D443F00803C0F8BC30436E4033436644
:10201000836E403B8366037B43F00203037380209F
:1020200070475A6B22F080425A63D0F8BC301A07CE
:1020300001D44020704723F00803C0F8BC30436E41
:10204000403B4366836E40338366F2E700EF00E077
:102050000C4A03469068A0B1D0F8BC20406E12F044
:10206000080F0CBF4022802213F1160F04D0821AF1
:102070009A4205D8834203D2814228BF002070478C
:1020800000207047B8160020114B9B6883421BD17B
:10209000EFF30580C0B94FF02002EFF3118182F316
:1020A0001288BFF36F8F1A7B22F002021A73EFF3CC
:1020B000148323F0040383F31488BFF36F8F81F339
:1020C0001188BFF36F8F70476FF01500704700BF26
:1020D000B816002008B514460D460022E1EE102A7D
:1020E000EFF3148222F0040282F31488BFF36F8F9F
:1020F000BFF36F8F084A906000F030FA204685F3F6
:102100000988002163B681F31188BFF36F8F002225
:10211000002305F023FE00BFB816002001B5EFF341
:102120000580A0F110004FEAC0000449014409C92C
:102130009847BDE80140024908470000E8900000C8
:1021400045210000044B99689869884203D00349EF
:102150004FF080520A607047B816002004ED00E08E
:1021600070B5264B15469A6A12F0100F9A6A14BF82
:102170001124102412F0080F9A6A18BF1224920733
:1021800006460AD5586B9A6A140634D519B19A6A6C
:1021900022F080029A62132401E06FF01500174BC1
:1021A0009A6A12F0010F9A6A18BF142412F0200FD5
:1021B0009A6A18BF1524D20602D49B6A9B070AD5D7
:1021C0000E4B5B68190506D53146FFF741FF10B18C
:1021D00080F309880224094B9A6A920642BF5A6A20
:1021E00022F400525A629A6A42F0FF029A62002375
:1021F0002B70204670BD6FF01500CCE700ED00E0BD
:10220000134B9A6A12F0007F9A6A14BF1E201D2099
:1022100012F0807F9A6A18BF1F2012F4002F9A6A6A
:1022200018BF212012F4802F9A6A18BF222012F4BE
:10223000003F9A6A18BF232012F4803F9A6A6FEA1F
:1022400002426FEA12429A6218BF2420704700BF10
:1022500000ED00E010B5194B0246986A9C6A10F434
:10226000805F14BF1720162014F4006F9C6A18BFFB
:102270001820A40509D5986B986A000404D51AB1F2
:102280009A6A22F400429A6219200C4B9A6A12F45C
:10229000806F9A6A18BF1A20D2050CD49B6A13F477
:1022A000005F18BF1C20054A936A43F47F43936282
:1022B00000230B7010BD1B20F5E700BF00ED00E010
:1022C00070B5454B5B689CB00546C3F30803002618
:1022D00086F31188BFF36F8F02F07F40B0F17F4F1C
:1022E00011D102F00C0008280DD010074CBF0D468C
:1022F00001260022033B8DF80720032B05D8DFE8D9
:1023000003F01E5D615A3546F3E700249DF807305F
:102310009BB96822294602A805F0AFFE099B002E52
:1023200054D0C3F3080222B96FEA53236FEA432360
:10233000099302A9204605F078FE1CB070BD264B1B
:10234000DA6A9107E1D4DA6A002ADEDBDA6A52003F
:10235000DBD55A69A96942F480725A61BFF34F8F85
:10236000BFF36F8F5A6931F8021C22F480725A61F0
:10237000BFF34F8FBFF36F8F4DF6027291420AD0B9
:102380009A6AD2B24AB10DF1070201212846FFF73D
:10239000E7FE0446BAE72C68B8E79A6A12F47F4F62
:1023A00005D00DF107010120FFF754FFF1E79B6A0B
:1023B000B3F5803FA9D3FFF723FFEAE70DF107024A
:1023C0000021E3E70DF107010020EDE723F4FF739F
:1023D00023F00103ACE700BF00ED00E0024A5369BF
:1023E00043F010035361704700ED00E0EFF3088005
:1023F000EFF3098101B57246FFF762FF01BD00BF2F
:10240000044800232021C2180133302B82F8001326
:10241000F9D1704700E100E0002080F31488BFF399
:102420006F8FFFF75BFB00200D490860BFF34F8FF4
:102430000C4880F3088800F03DF8202080F31188D4
:1024400009484FF40461401880F30988EFF31480C1
:102450000221084380F31488BFF36F8FFFF7F0FC6D
:1024600094ED00E000500020001E0020BFF34F8FCD
:102470000549064BCA6802F4E0621343CB60BFF320
:102480004F8F00BFFDE700BF00ED00E00400FA053C
:102490000749D1F890200023C2F30722184693423F
:1024A00000DB7047C1F89830C1F8A0000133F6E7AF
:1024B00000ED00E008B572B6002383F31388FFF740
:1024C000E7FF144B4FF0FF32C3F88020C3F884209D
:1024D000C3F88820C3F88C20C3F89020C3F8942058
:1024E000C3F89820C3F89C20C3F88021C3F8842146
:1024F000C3F88821C3F88C21C3F89021C3F8942134
:10250000C3F89821C3F89C2162B6BFF34F8FBFF385
:102510006F8F08BD00E100E0084B9B6883420BD140
:10252000EFF3058343B1064B5A6842F080525A607C
:102530005A6A22F400425A6203F0EABAB81600203E
:1025400000ED00E0024B034A0348012100F076B899
:102550000000042000000020C093000010B50446D5
:10256000FFF73EFD626E03460548D21AC0E900231C
:10257000044B8360BDE81040012100F069B800BF42
:102580002C15002000000B15F0B5204E00258D42C3
:1025900039DA446874B353B104F1FF3C14EA0C0F08
:1025A0002FD11F2C2DD907681CEA070F29D1202C09
:1025B0000768D0F808C05FFA82FE1ED9B4F1004F58
:1025C0001DD8013CB4FA84F4C4F11F046400BEF1C8
:1025D000070F4CEA040C14D827F01F04144344F0EE
:1025E0001004C6F89820C6F89C404CF00104C6F8C8
:1025F000A040013201350C30C9E70824E7E73E244A
:10260000E5E76FF015021046F0BD00BF00ED00E0F9
:10261000044B0522C3F89420BFF34F8FBFF36F8F95
:10262000704700BF00ED00E0BFF35F8F024B002258
:10263000C3F89420704700BF00ED00E010B5034CD4
:1026400001232278FFF7A0FF207010BDC9190020D8
:1026500008B5094A00231278FFF796FF10F1160F0C
:1026600002D0064A072800DD08BDC2F89800C2F86B
:10267000A0300130F6E700BFC919002000ED00E0EE
:1026800014490868082810B521D8FFF7CDFF124C6F
:1026900049680022904201F10C0105D10F4B1870DE
:1026A000FFF7B6FF002010BDC4F8982051F80C3C8D
:1026B00023F01F03134343F01003C4F89C3051F878
:1026C000043C43F00103C4F8A0300132E2E74FF0CC
:1026D000FF30E8E7CC93000000ED00E0C9190020CE
:1026E0000E4A0123C2F840354FF080424FF080512E
:1026F000C2F87835D1F83001082808D1D1F8341162
:10270000052904D80648415C09B1C2F838364FF0B3
:1027100080430122C3F880250020704700E001407B
:10272000559C000020B1034B800143F00103184782
:10273000704700BFF0920000084B70B5C31A0D46F9
:1027400007499B10044659430648402205F0C5FC42
:102750002B4601462046BDE8704018474C15002026
:10276000B76DDBB67090000073B50C4C0C4A40237B
:10277000041B00930D460B460A49A410614306460C
:10278000094805F0D6FC011E05DA30462B4602B09A
:10279000BDE87040184702B070BD00BF4C15002066
:1027A0009D810000B76DDBB670900000002270B50F
:1027B000012104461046FFF727FB0F4801F03EFCBD
:1027C0000E4B984215D106F044F926690C49304663
:1027D00005F01FFB00280BDB01253564246908493F
:1027E00004F11C0005F015FB002801DBE564002066
:1027F00070BD6FF00400FBE7392800000000AD0B4E
:10280000EC93000070B501460C2309484B43C418F3
:10281000D4E90E56403300221844A26305F04AFC66
:102820002DB132462B460348BDE87040184770BDB5
:102830004C1500207090000010B1012804D07047A2
:10284000034B1B6C5B0701D1FFF7DCBF704700BF78
:102850004C15002008B54FF02003EFF3118183F3EE
:102860001288BFF36F8F124A136843F002001060A2
:10287000DA0708D481F31188BFF36F8F0120BDE818
:10288000084006F0F3B84FF08043D3F80C24D3F897
:102890000C34DB07EED5074805F00CFC81F31188FA
:1028A000BFF36F8F0020BDE80840FFF7ABBF00BF4C
:1028B0009C1500208C1500201FB500220123CDE9B6
:1028C0000223094ACDF800D06B46CDF804D005F0BC
:1028D0005EFC002805DB4FF480420023684602F0CE
:1028E000EFFD05B05DF804FBBD81000010B54FF0B1
:1028F0002003EFF3118483F31288BFF36F8F074A2D
:10290000136823F00201DB07116002D4012006F0F6
:10291000E9F884F31188BFF36F8F10BD9C15002078
:102920002DE9F0413849BFF35B8F0746012251E89A
:10293000003F41E800200028F9D1BFF35B8F33B995
:10294000324933484B60CB608A6005F075FA7B1ED4
:10295000012B2BD8012F07D14FF08043D3F81C3423
:1029600003F00303012B21D006F038FA0546F8B92D
:10297000284B1B78E3B14FF080430222C3F80823B1
:102980000646DFF894804FF08044D4F81824D4F839
:102990001834D20316D503F00303012B01D0012F05
:1029A00010D15DB386F31188BFF36F8FBDE8F0815E
:1029B0004FF02003EFF3118683F31288BFF36F8F7C
:1029C0000125DEE7ADB13046FFF7E2F9D4F818355E
:1029D000002BDAD1D4F80421002AD6D0C4F804316F
:1029E000D4F804310123C4F81835C8F88031A36045
:1029F000CBE70021212003F06BF8E7E74FF080439D
:102A00000222C3F80423D1E748150020381500201E
:102A100068150020E31D002000E100E00048704739
:102A20007C9400002DE9F04F45688FB0044628687B
:102A300006F060F928B96FF0120528460FB0BDE81E
:102A4000F08FE868002848D1206905F0C9FBAB2366
:102A50008DF80B300AAE0DF10B03AD8E6068089354
:102A600008AF01233146CDE90A73099305F0F9FB5C
:102A7000002837D06168089601F1370301939F233E
:102A80008DF80A300DF10A03012504930DF11008A9
:102A90000023CDE90A35CDE906850DF10C0A4FF08A
:102AA000030B02230595CDF830A0CDF834B009937F
:102AB00051F8040B0DF118093B464A4605F081FB1D
:102AC00070BB01985A46514605F0C7FA70B16FF0D5
:102AD0001205206905F082FBAFE706F00BF900282C
:102AE000B2D1A8E7284606F000F9C3E7D4F804A05D
:102AF000104B06934146042350460B95CDE9093708
:102B0000CDF8209005F0B4FB05460028E1D1BDF8D2
:102B10001030DB07DDD43146504605F0A2FB10B182
:102B20006FF00405D5E7204605F0C6FB0028D0D09D
:102B3000F6E700BF3D2A80A62DE9F0430D1E87B0C1
:102B400007461646C0F28580D0F80480AB18D8F846
:102B500020209A427DD3B8F82E3095FBF3F203FB88
:102B60001252002A78D1B6FBF3F203FB1263002B5A
:102B700072D1006905F034FB98F83030002B3DD15C
:102B8000D8F82030B34239D1354B019301AB0293D1
:102B90000423039302AB04937868012304A90593EB
:102BA00005F05FFB20B9384605F086FB044608B106
:102BB0006FF00404386905F011FB204607B0BDE84A
:102BC000F083D8E909932BB1AB421BD84D4501D214
:102BD000A9EB030998F83130B3B9B14514D809F11C
:102BE000FF332B4210D12A467C21384605F0C3FB27
:102BF0004D440446A6EB0906002CDBD1002EE0D1A3
:102C00003446D7E79946E5E7B8F82C30B34202D806
:102C1000013B2B4206D0B8F82E30B3420DD96FF0ED
:102C20001504C7E72A465021384605F0A4FBB8F83A
:102C30002C3004461D44F61ADEE7013B2B42EED150
:102C40002A468121384605F096FBB8F82E30044616
:102C5000F0E76FF01204B0E76FF01504ADE700BFC6
:102C6000C794809A024B0B6001231360704700BF2A
:102C7000A0150020004870479894000010B501226C
:102C800011460648064C06F0CAF805F0A0FF206081
:102C900005F099FF6060002010BD00BFA81500205E
:102CA000A01500204FF08042D2F81015D2F8103550
:102CB00001F01E0123F01F030B4343F00103C2F890
:102CC0001035024B00221A70704700BFCA1900204D
:102CD0004FF08053D3F83031082B20D14FF0804291
:102CE000D2F81015CB071AD5D2F8103501F01E0115
:102CF00023F01F030B43C2F81035D2F808315BB143
:102D0000D2F8103523F01F030B4343F00103C2F840
:102D100010356FF08B007047024B01221A700020B3
:102D2000704700BFCA1900202DE9F0410D46164634
:102D300005F049FF31460746284605F03CFB78B3CD
:102D4000B5FBF7F307FB135353BBB6FBF7F407FBD5
:102D500014642CBBB7421DD84FF0FF324FF0FF3345
:102D60001148DFF8488002F0ABFB05F02CFF074666
:102D7000FFF7AEFF044680B9284601F081FD98F8C0
:102D800000300BB1FFF78EFFF61B3D44F0D1064833
:102D900002F072FB2046BDE8F0816FF08B04F6E78D
:102DA0006FF01504F6E700BFA8150020CA1900202F
:102DB0002DE9F8430E463046194617461C4605F0E5
:102DC000FAFA88B344EA060515F003052CD1BCB124
:102DD0001748DFF864904FF0FF324FF0FF3302F0F6
:102DE0006FFB24F00304AC4206EB05080BD1114A3B
:102DF000D2F80034DB07FBD500240D4802F03CFB81
:102E00002046BDE8F883FFF763FF50B97959404683
:102E100001F056FD99F800300BB1FFF743FF043580
:102E2000E1E76FF08B04E8E76FF01504E8E700BF17
:102E3000A815002000E00140CA19002030B5406804
:102E4000057B01F01F04B2F5001F85B044EA45146C
:102E500005D1204601F0CEFB002005B030BD002595
:102E6000B2F5800FCDE9025514D1B3F1007F0CBF4C
:102E7000042305238DF808300023194602AA2046B2
:102E800001F0D4F9234B98423DD10121204601F0B5
:102E900063FBE1E7B3F1C06F27D0B3F1007F14BF4C
:102EA000012302238DF80830836823FA01F111F021
:102EB0000101E1D1B2F1A07FDED104F01F0362096C
:102EC00003F5E07313D0012A20D1134A52F82330BE
:102ED000DB07D1D40DF107052946204601F0E6FABB
:102EE0000E4B984206D00395C6E70323DAE74FF06E
:102EF000A042EBE7284601F029FB064B9842F2D0AE
:102F00006FF00B00A9E76FF01500A6E751F823302A
:102F1000FFDE00BF0000AD0B000300500400AD0B4E
:102F200010B501F003FB044668B901F0D7FA084B6D
:102F300098420AD10748214601F0B2FA22460521FB
:102F40000620FEF761FF002010BD6FF00400FBE7D4
:102F50000000AD0B592F0000420970B5034602D0A6
:102F6000012A17D070BD0D4E326951680029F9D081
:102F700003F01F0301250C689D400029F2D08A68E8
:102F80002A4002D04B68304698472CB1236821462E
:102F90001C46F2E7024EE7E72346F8E79890000068
:102FA000849000002DE9FF4147683B7B01F01F053D
:102FB00045EA43150E4628460DF10701144601F077
:102FC00075FA14F4403F80460DD1284601F038FBD5
:102FD0003D4B984503D19DF8070001F0B1FA002060
:102FE00004B0BDE8F0810023194602AA2846CDE9C5
:102FF000023301F01BF9344B984214D1804503D1C0
:103000009DF8070001F09CFAA3034ED540F2063369
:103010002340B3F5837F1AD00DD8062B18D005D8DE
:10302000B3B1022B33D06FF01500D9E7B3F5807F31
:10303000F9D101230CE040F20222934229D0B3F5EA
:10304000407F28D0B3F5007FEDD1022300E00723B5
:103050008DF8083084F48033C3F30043E0068DF824
:10306000093054BFC4F34013032321038DF80A3001
:1030700013D57A680123B340C2F80835002202A9AB
:10308000284601F093F9104B9842A8D0CBE70423CF
:10309000DEE70523DCE70323DAE7620341BF012310
:1030A0007A68B340C2F80C35E8E7E3064FF0000356
:1030B00054BFC4F3401403241A4602A928468DF8CD
:1030C000084001F0B3F8DEE70000AD0B036803F041
:1030D0001F025B09026004D0012B034818BF0020C7
:1030E00070474FF0A0407047000300502DE9F74FA4
:1030F0004B4E9046074600EB8101B94203D10020B8
:1031000003B0BDE8F08F3B6803F07F04C3F34325B1
:103110001B0C7F2CA3F1040308BF4FF0FF34152BC9
:103120007BD8DFE803F00B11237A7A7A7A2B567A70
:103130007A7A7A7A7A7A7A7A596E7174621CC8F8D5
:10314000084567D10437D8E7631CC8F80C45F9D0A7
:103150004FF0010901A80194FFF7B8FF019B4FF060
:10316000010A0AFA03F3C0F80C3511E0C8F810455B
:10317000601CE7D04FF00009CA4609E0C8F80845CE
:10318000002DF5D1631CDDD04FF00009CA4606259D
:10319000D7F800B001940BF40053002B01A81CBF1A
:1031A0004FF001094FF0000AFFF790FF019B00EB81
:1031B0008300CBF3C11BD0F800272B0243EA8B031B
:1031C00043EA0A033240134343EA4903C0F8003795
:1031D000B8E7C8F80C45D3E7C8F86045621C3B68FF
:1031E000B0D0C3F38033002BB2D001A80194FFF715
:1031F0006DFF019B4FF0010909FA03F3C0F8083590
:10320000BAE7C8F86445E9E7C8F86845E6E7C8F8EA
:103210006C45E3E74FF000099CE76FF085006FE72E
:10322000F0F8FCFFF0B504694768A56C236D85B024
:1032300006463DB96BBB1946306905B0BDE8F040A4
:1032400005F060BA616C03BB31BB3A8F636C0091CF
:10325000AA4228BF2A46A2651BB1A36C002B18BF47
:1032600013460193E36C02931BB1236D002B18BF2F
:103270001346002269463846039301F06BFD0E4B5E
:10328000984217D06FF00401D6E79D4228BF1D4633
:10329000DAE7616C1D46D8E701F06043B3F1005FE7
:1032A000D3D0082D28BF0825206E2A4604F0E5FE5D
:1032B000216ECAE705B0F0BD0000AD0B2DE9F04F5F
:1032C0008FB09946436801938B88046992469A04AB
:1032D00007460E4600F122814FF0FF324FF0FF33D8
:1032E00004F1100002F0ECF86660D7F804B0D7F8EB
:1032F0001080DBF80830039398F85D3023B1D8F8DC
:1033000000309E4200F08A80B6F804E01EF4006FA0
:1033100040F03C811EF0090F40F03581CEF345139B
:10332000082B40F0308133680293029AAC4B9A42EA
:1033300040F229810BF10C0CBCE80F0004AD0FC565
:10334000BCE80F000FC5DDE902329A4228BF1A46D9
:103350009CE80300A34B9A4285E803001BD2A24BD2
:103360009A4218D2A14B9A4215D2A14B9A4200F22E
:10337000DE80A04B9A4200F2DC809F4B9A4200F222
:10338000DA809E4B9A4200F2D8809D489D4B9E4920
:10339000824288BF0B461EF0020F09930EF0040311
:1033A00000F0CD80002B14BF032302238DF82830BA
:1033B000CEF300138DF82930DBF80030D3F8083550
:1033C0001EF0020F4FEA5312CEF3400103F01F0329
:1033D00040F0BC80002A00F0B680012A40F0F9805D
:1033E0008A49012202FA03F3C1F80C3598F85D30DE
:1033F0002BB1584601F066FC002388F85D30434647
:10340000834A04A9584601F02FFC824B984240F0B1
:10341000AA80012388F85D30C8F80060012384F891
:103420005C30019B186C431C01D005F0D3F9BAF154
:10343000000F40F0AE80C4F834A00023A36304F171
:10344000480204F1380104F1340005F0A9F8606481
:10345000B9F1000F40F0A680C4F83C90002323642B
:1034600004F1500204F1400104F13C0005F098F829
:10347000E06420680023236348B183683BB10121E5
:10348000083005F0A0F82368186905F02EFC3846CE
:10349000FFF7C8FE0022A06B1346834240F08B80EA
:1034A0000023256C1946A94240F08C8093422646A1
:1034B00038BF13464FF4FA5202FB03F556F8203B8F
:1034C0004FF000081B68B5FBF3F54FF4004CC8350E
:1034D000414640F2E7304FF47A720023E5FB0C01DD
:1034E000FCF70EFE02460B46304601F0E9FF18B924
:1034F000256B15F1740F38D10198C4F8588001F08C
:10350000E1FB84F85D8038696FF0730105F0FAF82B
:10351000304601F0FDFF6FF0730526E0A369002B34
:103520007FF4DAAE636899427FF4D6AEDDE63A4BBB
:1035300031E73A4B2FE73A4B2DE73A4B2BE7003B6D
:1035400018BF012332E74FF0A0414AE742B1012AF8
:1035500042D12E49012202FA03F3C1F8083545E7AA
:103560004FF0A041F6E76FF0040523689B8813F441
:10357000005304D1636004F1100001F07DFF284680
:103580000FB0BDE8F08F6FF01505EEE76FF0850521
:10359000EBE7DAF800306363002B3FF44EAFDAF864
:1035A00004304BE7D9F80030E363002B3FF456AF0B
:1035B000D9F8043053E7616B01EBC301013349686B
:1035C0000A446AE7E06B00EBC10001314068034444
:1035D00069E7C1F80C15FFDE0023C3F80835FAE7E8
:1035E00047E801000048E8010024F40000127A00D6
:1035F000FF083D007F841E003F420F001FA107000F
:103600008FD0030048E8010090D003000003005071
:103610003D8700000000AD0B00093D0080841E00C6
:1036200040420F0020A1070000F01F0240090DD00A
:1036300001280ED10A4B03EB82030A4AD3F8000794
:10364000024042EA8102C3F8002770474FF0A043CE
:10365000F1E702F5E072002353F82230FFDE00BFED
:1036600000030050F0F8FCFF30B585B001238DF861
:103670000430054602230DF107008DF80830039051
:1036800000F064FF0C4B984204460FD1002302AABD
:1036900001A9284600F0CAFDA0420AD09DF8070003
:1036A00000F04EFF6FF0040005B030BD6FF0120067
:1036B000FAE70020F8E700BF0000AD0B70B501236A
:1036C00083400E4ABFF35B8FDC4352E8001F01EAE0
:1036D000040542E80056002EF7D1BFF35B8F4FF48C
:1036E000803282400648C0F80823BFF35F8FBFF3E3
:1036F0006F8F0B4214BF0120002070BDD415002035
:103700000010014070B40E49D1E90034D01AC3183A
:1037100044F1000422F07F46C1E90034A6F500130D
:10372000B3F5400F09D2074B1B681A0A1B069C19F8
:10373000054B42F10005C3E9004570BC02F022BB15
:10374000F8010020D81500200002002011B3BFF3BB
:103750005B8F0123104A834052E800CF4CEA030CF0
:1037600042E800C10029F7D1BFF35B8F0B4A4FF449
:1037700080338340C2F80433094BBFF35B8F1B686F
:10378000BFF35B8FC340DB0742BF064B4FF40032F1
:10379000C3F80021704700BFD4150020001001407D
:1037A000D015002000E100E00D4B1868010A00066A
:1037B000BFF35F8F0B4BD3F80435181841F10001AC
:1037C000B3F5801F0AD2084BD3E90023904271EB76
:1037D000030303D210F1807041F10001704700BF74
:1037E000D815002000100140000200202DE9F04F04
:1037F00085B016461F469DF840A00446FFF75EFFC1
:103800000190FFF7D1FFB04271EB070354D23E4B5A
:10381000301A67EB0101984271F100014FD23B4B26
:1038200003EB0413D3E902239F4208BF96425ED004
:1038300037494FF4803804F1500508FA04F8AD0018
:10384000C1F848832046ADB204F0ECFF26F07F4B70
:1038500005F1804504F5A87305F58835DC464FF081
:1038600003090293029A2CF07F4341F82230C1F8F9
:103870004483D1F80435274A6FF00200C01A60442F
:1038800020F07F40904232D9286868B1D1F80435E1
:103890000393A3EB0B0020F07F40B0F5000F26D977
:1038A000204604F0BFFF039BBAF1000F07D109EBDC
:1038B000030C09F10109D5E7BAF1000F09D06FF047
:1038C000150520460199FFF741FF284605B0BDE8E0
:1038D000F08F0123104ABFF35B8FA34052E8000F23
:1038E000184342E800010029F8D1BFF35B8F074974
:1038F0000E98230101EB0412C8500F9B5360C2E9DC
:1039000002670025DDE700BF01008000E80100201C
:1039100000100140FDFF7F00D01500207FB51C4C3A
:103920001C4BC4F80833C4F848331B4B00254FF038
:10393000FF304FF0FF31C4F80855C3E902014FF4DE
:103940008033C4F80433154B02264FF400320121B2
:10395000C4F804631120C3F880212A46FEF754FA04
:103960001120FEF721FA0E4A0123A36023601360A1
:103970000C4B0D4A0093CDE9015500232846FFF773
:1039800035FF3046FEF7CCFF284604B070BD00BFBF
:103990000010014003000F00E801002000E100E0FA
:1039A000D415002005370000FFFF7F002DE9F74305
:1039B0002F4CD4F8043399070BD5D4F8043143B114
:1039C0002C4A0023C4F80431D4F8043113680133BD
:1039D0001360D4F80433DA032AD5BFF35B8F264B88
:1039E00053E8002F22F0010143E800100028F7D12E
:1039F000BFF35B8FD30702D4D4F84031C3B10025A5
:103A0000C4F84051D4F84031FFF7CEFE4FF0200308
:103A1000EFF3118283F31288BFF36F8F174BD3E953
:103A20000267B042B94106D282F31188BFF36F8FAB
:103A300003B0BDE8F0834FF0FF384FF0FF39C3E922
:103A40000289D3E900101D604FF48033C4F8483375
:103A5000C4F84051D4F8403182F31188BFF36F8F1E
:103A60000029E5D0009032463B4628468847DFE7EC
:103A700000100140D8150020D0150020E8010020DA
:103A80001FB5431C23D0012823DD134A134B90425A
:103A9000D4BF04461C46FFF787FE114B0F49D3E9FC
:103AA0000023801AB0F5000F28BF002404448C4284
:103AB00028BF0C46A2180B4900914FF00000CDE939
:103AC000010043F10003FFF791FE04B010BD034C69
:103AD000E1E70124DFE700BFFEFF7F00FFFF7F007B
:103AE000F80100200537000008B5FFF75DFE024B26
:103AF0001B68C01A08BD00BFF801002010B5084CB3
:103B0000012363601120FEF75DF9064BC4F808330A
:103B1000C4F84833044B4FF40032C3F8802110BD81
:103B20000010014003000F0000E100E030B50C4937
:103B30000C4D0B680246002405EB0310D0F8080872
:103B4000C0B218B904B10B60002007E00133072BA5
:103B50004FF00104F0D90B606FF01B00136030BD13
:103B6000DC15002000E0014030B5816885B01039D7
:103B700021F00704054604F02BFA1022014668469E
:103B800004F086FA07491022684604F076FA1023FA
:103B90006A462146284604F0E9F9003818BF01209A
:103BA00005B030BDF096000030B50D46816887B095
:103BB000102302AA1039044604F0C3F9002802DADF
:103BC000012007B030BD102202A9204604F09FFE5C
:103BD00000283AD11E49102202A804F03EFA00281B
:103BE0000CBF012302232B70204604F07CFE01232E
:103BF00001460DF10702204604F0A3F90028DFDB9F
:103C00009DF8073003F00F021B096A702B71012227
:103C10000DF10701204604F07AFE10B96B78042BF1
:103C200003D901236B7000232B71A268183A22F08C
:103C30000702083AA91C204604F07CFE0028BFD1E8
:103C4000E91C204604F0CFFEBBE70323CBE700BF0F
:103C5000F0960000F0B5354F460085B00546694640
:103C600057F8260004F0C5FE044610B1FF2005B049
:103C7000F0BD013602A957F8260004F0BAFE01286B
:103C800037D12B482A46492104F04DF9294B02939C
:103C90008DF80C409DF800609DF80870264C0022BD
:103CA0002078314604F025FE50B36078394604F0A0
:103CB00020FE28B3A378042B03D09DF8031099426B
:103CC0001ED1E378042B03D09DF80B10994217D135
:103CD0002379042B10D16279022A1DD1174B184881
:103CE0002A46492104F01FF96079831E022BBED9B0
:103CF000BCE70028CED0B9E79DF802109942EAD07F
:103D00000132032A04F10604CAD10E482A46492189
:103D100004F009F90120AAE7032A05D00A4B0B4950
:103D2000042A08BF0B46DAE7094BD8E7589500008C
:103D30002E9D000003010303C39D0000109D0000A1
:103D4000799D00009D9D0000159D0000279D0000AD
:103D50000B9D00004FF08053D3F83021082A06D184
:103D6000D3F83431052B02D8024AD05C70470020CA
:103D7000704700BFDB9D000008B54FF08053D3F8BB
:103D80003021082A4ED14FF080420021C2F80C1198
:103D9000C2F81011C2F8381502F54042D3F80414E5
:103DA000C2F82015D3F80814C2F82415D3F80C145F
:103DB000C2F82815D3F81014C2F82C15D3F814142F
:103DC000C2F83015D3F81814C2F83415D3F81C14FF
:103DD000C2F84015D3F82014C2F84415D3F82414BF
:103DE000C2F84815D3F82814C2F84C15D3F82C148F
:103DF000C2F85015D3F83014C2F85415D3F834145F
:103E0000C2F86015D3F83814C2F86415D3F83C141E
:103E1000C2F86815D3F84014C2F86C15D3F84434CE
:103E2000C2F87035FFF796FF18B12B4B2B4AC3F839
:103E30008C26FFF78FFF18B1294BFB22C3F81825FA
:103E4000FFF788FF70B14FF080414FF08053D1F8F9
:103E5000E42ED3F8583222F00F0203F00F0313437D
:103E6000C1F8E43EFFF776FF20B11E4B4FF400721D
:103E7000C3F840264FF08053D3F83031082B09D1D6
:103E80004FF08043D3F80024D20744BF6FF0010203
:103E9000C3F80024144AD2F8883043F47003C2F8FF
:103EA0008830BFF34F8FBFF36F8F4FF08053D3F83D
:103EB0003021082A0ED1D3F83431052B02D80B4A11
:103EC000D35C3BB14FF01023D3F808224FF080436E
:103ED000C3F8582508BD00BF0050004048810300CA
:103EE00000F000400090024000ED00E0D59D000091
:103EF00030B50468CCB1BFF35B8FB4FA84F3C3F17F
:103F00001F03DBB201229A4024EA020250E8005F5C
:103F1000A54204D140E8002CBCF1000FF6D1BFF35C
:103F20005B8FE6D102480B7030BD0248FCE700BF52
:103F30000000AD0B0200AD0B10B50368CB40DB07F2
:103F400014D401238B400268BFF35B8F43EA020164
:103F500050E8004F944204D140E8001CBCF1000F2F
:103F6000F6D1BFF35B8FEED1014810BD0148FCE7ED
:103F70000000AD0B0400AD0BF7B5044618B10128E5
:103F800023D003B0F0BD4FF080430222C3F80823D2
:103F9000C3F80401D3F804210122DA6006460123A4
:103FA0008DF8073042F210754FF08047D4B1012CE4
:103FB000E7D1D7F80C3403F48033AEBB83B30120D0
:103FC00004F045FD013DF4D12AE04FF0804300228A
:103FD000C3F80803C3F80021D3F8002158600DF19D
:103FE0000706DCE7D7F8183403F480333EB9002B1A
:103FF000C7D0012004F02BFD013DF3D1C1E7D7F874
:10400000182402F003023260002BBAD09DF807009A
:10401000012803D104F01BFD013DC7D1012CB0D113
:10402000054B00225A71ACE7D7F80C2402F00102CC
:104030003270002BEAD1F3E7E0150020044B1A7927
:1040400022B9012218609A800248704702487047DE
:10405000E01500200000AD0B0C00AD0B10B54FF0CB
:104060008043D3F800216AB10022C3F80021D3F8BD
:1040700000210122C3F80823114B587910B95A7155
:104080001B6898474FF08043D3F8042172B1002297
:10409000C3F80421D3F80421D3F81824D3F8182442
:1040A000920704D10122C3F818259A6010BD02229C
:1040B000C3F80823024BBDE810401B6801201847D5
:1040C000E0150020036803F01F025B09026004D0C2
:1040D000012B034818BF002070474FF0A0407047E5
:1040E00000030050034A430900F01F00D35C18444A
:1040F000C0B27047EC9D000008B5FFF7F3FF034B1B
:10410000083033F81000C0F3401008BDA4000020B0
:1041100008B5FFF7E7FF034B083033F81000C0F392
:10412000400008BDA400002008B5FFF7DBFF034BEB
:10413000083033F81000400B08BD00BFA400002079
:1041400070B50546FFF7CEFF0C4C08300E4634F82C
:104150001030DA0508D5C3F3432304EBC302284625
:1041600054F8333052689847A3682BB1E26831465F
:104170002846BDE87040184770BD00BFA40000206D
:1041800010B5FFF7AFFF124A083032F81030D905EA
:104190001CD5C3F3432123F4F85322F8103002F165
:1041A0000E04002034F8023F13F4807F03D0C3F3E1
:1041B000432399420AD001303028F3D1002342F83A
:1041C00031300448BDE81040FFF7B6BE10BD00BF57
:1041D000A400002018010020F0B50146104A114C3F
:1041E00000200125064602F14043A3F5C2439B0887
:1041F00005FA03F3194204D0176817B1166017685F
:1042000018430432A242EED1074BD3F87C2132B1DD
:104210000022C3F87C21D3F87C3140F00040F0BD8F
:104220000061004020610040006000402DE9F04343
:1042300085B0054690461E46FFF754FF044609B375
:104240002846FFF765FF18B12846FFF755FF38BB32
:104250000023CDE900338DF80E308DF80F300DF1CD
:104260000F020B4628460DF10E0104F03DFC4A4AB0
:1042700004F1080132F8113023F0020343F0010386
:1042800022F81130B8F1000F31D0284698F80070AC
:10429000D8F80490FFF73CFF20B1B9F1000F1BD014
:1042A0003E4826E03C4B04F1080C33F81C1021F08A
:1042B0002001C904C90C23F81C10B9F1000F0BD060
:1042C000032FEDD8D8F8042092F800E0A7B9344BBA
:1042D0000EF5A27E43F82E702F4A04F1080132F841
:1042E000113023F01C0343EA870322F811304EBB40
:1042F0002C4805B0BDE8F0834FEA8E0202F18042FF
:1043000002F5C04241EA4E31D2F8100520F0030018
:10431000C2F81005D2F8100520F44F3020F4407098
:10432000C2F81005D2F81085280200F47C5040EA4B
:10433000080040EA074041F0200123F81C10C2F8B1
:104340001005C9E7D6E900762846FFF719FF002FC8
:10435000CED0114DD5E90023974201D19E4218D00D
:1043600011480DF10F01FFF7C3FD0E4B9842C0D16C
:104370009DF80F2045F8327005EBC20308345E60EB
:1043800035F8143043EA422343F4807325F814309F
:10439000AEE70022EEE700BFA40000200400AD0B52
:1043A000006000400000AD0B180100202DE9FF4126
:1043B00004461646FFF796FE054631B32046FFF742
:1043C000A7FE20B92046FFF797FE002860D1314FA5
:1043D00005F1080837F8183013F01C0F02D04B789D
:1043E000012B55D001238DF80F300023CDE90013A8
:1043F0004A1C8B1C20460DF10F0104F075FB37F8A9
:10440000183043F0030327F818301EB9224804B0CF
:10441000BDE8F0812046FFF77BFEC8B31D4F96F83C
:1044200000C005F10800614637F81050890025F0FA
:10443000200501F18041ED0401F5C041ED0C27F8A4
:1044400010500023C1F810357278002ADED0D1F860
:104450001035B67823F4991323F4F853C1F81035C6
:1044600012042302D1F810E502F4403203F47C5325
:104470001343320543EA0E0302F4801245EA4C3539
:10448000134345F0200527F81050C1F81035BDE75B
:104490000248BCE7A40000200000AD0B0400AD0BF7
:1044A000014BC3E902017047A400002010B5044687
:1044B000FFF722FE50B12046FFF714FE044B0830F0
:1044C00033F8103003485B0B0B7010BD0248FCE75B
:1044D000A40000200000AD0B0400AD0B70B50F4C24
:1044E00094F87860BEB90E4D6022314604F1100098
:1044F00003F0CEFDC5F87C610620D5F87C31FDF7D0
:1045000053FC4FF00043C5F804330648012384F8F8
:104510007830636770BD0448FCE700BFA40000204A
:10452000006000400000AD0B0500AD0B034B93F89D
:104530007800003818BF0120704700BFA400002099
:1045400001460148FFF7F8BC14010020014601486C
:10455000FFF7CEBC1401002037B50446FFF7CCFDB1
:1045600008B32046FFF7D4FD0546E0B92046FFF723
:10457000DBFD03B29B0003F1804202F5C24203F16E
:10458000804303F5C04315601268D3F8102542F04C
:104590000102C3F8102521B1144A01238340C2F857
:1045A000043303B030BD2046FFF79CFD104B0830AC
:1045B00033F81030C3F38203042B12D0052B12D032
:1045C00001A80194FFF77EFD019BD0F81015D9409A
:1045D00001F001010231204603B0BDE8304004F093
:1045E000CCBA0321F7E70221F5E700BF00600040E5
:1045F000A400002010B50446FFF77EFDC0B12046A0
:10460000FFF786FDA0B92046FFF78EFD0B4A012378
:104610008340C2F8083303B29B0003F1804303F5E3
:10462000C043D3F8102522F00302C3F8102510BDB3
:1046300020460021BDE8104004F09FBA0060004011
:1046400073B50446FFF74EFD184E00F1080536F825
:104650001530DB0727D52046FFF7CCFF2046FFF7B4
:104660004BFD40B12046FFF75FFD114B00F5A270F6
:10467000002243F820202046FFF782FD002301A8F6
:1046800026F815300194FFF71DFD019B00EB830018
:10469000084BD0F80027134043F00203C0F800375E
:1046A000054802B070BD0548FBE700BFA40000202C
:1046B00000600040F0F8FCFF0000AD0B0400AD0B03
:1046C0002DE9F04F644BD3F80403C0B285B040F03D
:1046D0000040FFF781FD051E80F2A1804FF0A0434E
:1046E000D3F820250292C3F82025D3F8202803927E
:1046F000C3F820280DF108084FF00009574B09EBCB
:10470000030B4FE093FAA3FA9BF80040BAFA8AFA37
:104710004AEA44142046FFF7E5FC514B0194083067
:104720004FEADA0233F810700AF0070301209840CC
:1047300018F8023023EA000308F8023001A8FFF756
:10474000C1FC019B03F5E073B90850F82330C7F3AF
:104750008206C3F3014A4B0737462FD52046314620
:10476000FFF7EEFC01A80194FFF7ACFC019B03F5F9
:10477000E0735FFA8AFA50F82330C3F301439A4595
:1047800007D10021204604F0F8F95146204604F0F4
:10479000F4F901A80194FFF795FC019A01239340D5
:1047A000C0F82035D8F80030002BABD108F1040850
:1047B000B9F1000F1DD14FF001099FE7BAF1020FC7
:1047C0000CD10321204604F0D8F906F00503012B93
:1047D000DFD139462046FFF7B3FCDAE70221204655
:1047E00004F0CBF9032EF4D0BAF1030FD1D1022E8D
:1047F000EEE74FF00040FFF7EFFC4FF0A042194901
:10480000D2F820350293C2F82035D1F82025039242
:104810001343C1F820257FF46DAF25F00045012436
:1048200015B905B0BDE8F08F95FAA5F3B3FA83F397
:1048300004FA03F29B0003F1804303F5C04325EA29
:104840000205D3F81005D3F81015C0F30520C1F305
:104850000141FFF775FCE3E700600040FC9D0000AC
:10486000A400002000030050044AD2F80034DB0703
:10487000FBD50160BFF35F8F704700BF00E00140D0
:104880004FF080531A69B0FBF2F302FB130373B9C4
:10489000084B0222C3F80425C3F80805D3F8002406
:1048A000D207FBD500220448C3F80425704703480B
:1048B000704700BF00E001400000AD0B0A00AD0BE7
:1048C00010B5054C0123C4F80435FFF7CDFF0023D4
:1048D000C4F8043510BD00BF00E00140036803F0D8
:1048E0001F025B09026004D0012B034818BF00209F
:1048F00070474FF0A04070470003005073B5164654
:10490000421C1C460546069B18D0012902D1BBB1AA
:1049100004F0B4F901A80195FFF7E0FF019B00EB5B
:1049200083002402D0F80027074B44EA86040C4396
:1049300013401C4344EA4101C0F8001702B070BDA7
:1049400004F0A9F9E6E700BFF0F8FCFF4B69184A4C
:10495000934221D00DD8174A93421DD007D8164A4A
:10496000934219D0154A934216D015487047154AFC
:10497000F9E7154A934208D004D8144A93420BD061
:10498000134AF0E7134A9342EFD10279124B1348CE
:10499000002A08BF1846704791F8213013B1CB6840
:1049A0000133F2D1CB690133EFD10C48704700BF1E
:1049B00080841E0020A1070048E8010090D0030079
:1049C0000400AD0B40420F000024F40000093D003C
:1049D00000127A000048E8010300AD0B0000AD0BA7
:1049E0002DE9F04F8B4B4D6990F804909D4287B0B4
:1049F00006460C4600F0E68000F2D680864B9D42CB
:104A000000F0E38000F2C880844B9D4200F0E0801B
:104A1000834B9D420CBF4FF080654FF08045814F26
:104A200094F82300242202FB0973997F60F30001AC
:104A300099773379217C02FB0373D97794F823802B
:104A4000B8F1000F34D16269774B9A420CBF4FF036
:104A5000030A4FF0000A237E012B94BF0023012399
:104A600000932068534642460121FFF747FFCDF8E7
:104A700000806068534642460121FFF73FFFCDF8B2
:104A80000080A27EA06853464146FFF737FF237C93
:104A900083F001030093E068534642460121FFF78B
:104AA0002DFF01210091E06953464246FFF726FFA2
:104AB000317994F82130002900F09380002B00F028
:104AC0009080242202FB09724FF0FF30106294F8AC
:104AD0002100627E94F8129094F818E0D4F81CC07B
:104AE0000492002800F08780E068227C94F822B0CD
:104AF00094F820A0059229B1002B7FD11CF101016F
:104B000018BF012194F824803368B8F1000F0CD14C
:104B10002268029262680392029AA468C3F8082588
:104B2000039AC3F80C25C3F81045049AC3F8C0953E
:104B3000003A18BF0122BEF1020FC3F824555FD01E
:104B4000BEF1030F5FD0BEF1010F01D142F00202AE
:104B5000C3F8542591B1B8F1000F0DD1BCF1FF3F5E
:104B600018BFC3F86CC5421C1FBF059AC3F81405D3
:104B7000C3F86825C3F864B5C3F860A53379242267
:104B80005343FB58002B41D0306840F3073007B047
:104B9000BDE8F04FFDF708B9244B9D420CBF4FF024
:104BA00080554FF080453AE7214B9D4213D01E4B74
:104BB0009D4213D01F4B9D420CBF4FF000454FF05C
:104BC00080452CE74FF0005529E74FF0006526E7B8
:104BD0004FF0007523E74FF0206520E74FF0A05518
:104BE0001DE7242000FB0979E268C9F82020227C17
:104BF00089F81F206BE74FF0FF3076E7012181E74E
:104C000042F00402A4E742F00602A1E707B0BDE8C3
:104C1000F08F00BF80841E0020A1070048E801003B
:104C200090D00300E81500200048E80140420F0042
:104C30000024F40000127A00431C07B50ED0019046
:104C400001A8FFF74BFE019B00EB8300054BD0F85A
:104C50000027134043F00203C0F8003703B05DF8AB
:104C600004FB00BFF0F8FCFF2DE9F04190F8048050
:104C7000114C242606FB08F604EB060C05469CF8AE
:104C80001CE0BEF1000F15D1A251CCF8043039B1AF
:104C9000FFF75CFE094B98420AD12846FFF7A0FEB9
:104CA000242303FB0844002363770448012323776C
:104CB000BDE8F0810248FBE7E81500200000AD0BDD
:104CC0000500AD0B2DE9F0410446067900681F4D43
:104CD00040F30730FDF776F824237343EB5853B1C4
:104CE00023681B4AC3F8082306EBC601206805EBBE
:104CF000810103F0DDFF2421236801FB0651D3F875
:104D00000805D3F80C75D3F810858B7FDB0716D414
:104D1000FFF792FF4046FFF78FFF3846FFF78CFF03
:104D2000086AFFF789FF23794BB12368D3F86C0534
:104D3000D3F81415FFF780FF0846FFF77DFF242303
:104D400003FB065500232B77BDE8F081E815002012
:104D5000520108002DE9F0430779534D24237B438A
:104D60009046EA180E46517F85B08146002940F0F2
:104D70009980EB5823B118F0140F04BF0123537727
:104D800096E80F00242404FB075404F10C0C8CE873
:104D90000F00206A431C03D0E37FD3B103F06EFF02
:104DA0003368D9F8004023B103F06043B3F1005FEA
:104DB00006D1B36883B103F06043B3F1005F0BD059
:104DC000242303FB0753002238485A7705B0BDE877
:104DD000F08303F060FFE3E718F0010318BF01233D
:104DE000C4F8503518F0020318BF0123C4F8403549
:104DF00096E80F00EC468CE80F00039BC4F84405CE
:104E0000C4F84815C4F83425C4F838350023C4F86C
:104E10001831D4F818310723C4F8003524237B4314
:104E200018F0080F05EB03021DD1E858012121619C
:104E300058B9D4F81831002BFBD0624640212046E7
:104E400003F0DEFE24237B43EA18EB5803BB106A11
:104E5000411C12D107EBC70705EB8701204603F081
:104E600027FF1348B2E7EB5893B9106A431CF8D0F8
:104E7000D37F53B103F00FFFF3E7D37F13B103F0F8
:104E80000AFFE7E703F0FAFEE4E703F0F7FEE8E7DE
:104E900018F0040F4FF0400314BFC4F80833C4F8EF
:104EA0000433DEE7034891E7E81500200A00AD0B64
:104EB0000000AD0B0B00AD0B10B5114A40214FF0B7
:104EC000402003F09DFEC8B10E4C206A431C03D065
:104ED000E37F83B103F0DFFE637F23B109494FF025
:104EE000402003F0E5FE002323720748D4E9003197
:104EF000BDE81040184703F0C1FEEDE710BD00BF4C
:104F0000F4150020E8150020F015002010B5144C11
:104F1000A8220021204603F0BBF803232361114A95
:104F20006361114BA261E3614FF48063236200234C
:104F3000A3626362E36222660C4A62661022A26682
:104F40002367E3666367BFF35F8F094A12F8011DA9
:104F5000E1540133102BF9D1BFF35F8F10BD00BFB7
:104F60000C160020289E0000E3190020D319002011
:104F7000419E0000104B70B553F82040013053F8AB
:104F80002060A64200D870BDD4E9003595B153B178
:104F90002846984738B10028B8BF4042EB68FF2840
:104FA000A8BFFF201870EA68537843F001035370DC
:104FB0000834E6E79847FBE76495000008B50A4B1C
:104FC000012203201A70FFF7D5FF00F05FFF0420D5
:104FD000FFF7D0FF00F03EF9FBF7FCF9034A137B23
:104FE00023F00103137308BDE31D0020C802002055
:104FF00008B50348034A0021121A03F0A1FE08BDB8
:10500000E8010020E81D002070B51C4E1C4D1D4914
:10501000C02303FB006686B000230122CDE90423F0
:105020000F22CDE902320193182303FB00550446F9
:105030004FF4C070144B00954FF4A07200FB0411A4
:10504000304600F0D5F8737B104AEE6023F004037D
:1050500073734FF4086304FB033313446B600C4B0E
:105060002C74BFF35B8F53E8001F013143E800123B
:10507000002AF8D1BFF35B8F06B070BD0802002094
:10508000B816002080260020E98D0000001E0020B8
:10509000B416002080B50020B6B0FFF76BFF2D4B93
:1050A00083F308882C4D2D4E6B692D4F43F400730C
:1050B0006B610024E02385F82230EC772C766C7647
:1050C000AC7685F820406B6A43F4E0236B6285F888
:1050D0002340FDF783F9FCF747FE4FF0FF33AB6247
:1050E000EB62FDF7CDFAFDF72DFA40F20113ADF8B2
:1050F000243006ABB360CDE91F44229403F0F9FDE0
:105100000120FFF737FF0220164DFFF733FF00F0B5
:1051100055FC154BB5610593012314490094CDE965
:1051200003434FF420523B46CDE90144284600F0AA
:105130005FF86A7B064622F0040228466A7303F091
:10514000B4FE2046FFF760FF3A4631462846FCF79A
:10515000C1FF00BF8026002000ED00E0B81600204F
:10516000BD4F0000C8020020429E00000028002021
:1051700038B5064C064D0020AC4200D338BD204661
:1051800003F0E2FD0028F9DB1C34F5E79401002070
:105190009401002073B50C464FF02005EFF3118108
:1051A00085F31288BFF36F8F45695DB125602B6869
:1051B0004361836901338361002081F31188BFF368
:1051C0006F8F11E052EA030603D125606FF00B00E8
:1051D000F3E7CDE900230246083000F0F9FA18B9E8
:1051E000024B9B685B69236002B070BDB81600205B
:1051F0002DE9FF410E9E0673042646730D9E8673AD
:1052000000F158050F46D61DC0E916550C9A002529
:1052100026F007064037C0E90655C0E919768560D3
:10522000C573C56606F1400802920B9A0192884444
:105230000A9A009242460446FCF7A2FE044B6565BA
:105240009B6803B11B6F2367404604B0BDE8F08143
:10525000B81600202DE9F043294C2A4D87B0264688
:10526000AE4204F12C040FD300F078FB244CDFF89D
:1052700098904FF4004640F2E737AC4220D307B095
:10528000BDE8F04300F07EBB54F8043C059354F8AD
:105290000C3C049354F8103C039354F8143C0293D0
:1052A00054F8183C019354F81C3C009354E909232A
:1052B00054E90B01FFF79CFF54F82C3C5E65CEE7E8
:1052C000636A5A1C0DD023EAE37300213846C3FBFE
:1052D000060151EAC333D4F8008004D1404600F0FF
:1052E000EDFA2C34C9E74FF47A720023FAF708FF7D
:1052F00002460B4608F11800494600F0CDFCF0E7E5
:1053000068920000689200000F8F00002DE9F341C1
:10531000044617461E464FF02003EFF3118883F32F
:105320001288BFF36F8FC368334A7BB1806891687E
:10533000884219D057EA060318D188F31188BFF3C1
:105340006F8F6FF00F0002B0BDE8F081916891F9A6
:105350000E1021610133E3609368A36088F3118824
:10536000BFF36F8F0020EEE72169F2E791F90E108D
:1053700090F90E309942A8BF19466FF07E02914213
:10538000B8BF11468B422EDD03F03AFD0546CDE94C
:1053900000761A482246414600F01AFA0028E1D069
:1053A0004FF02003EFF3118683F31288BFF36F8F62
:1053B000A068D0B1236821699C420AD04BB193F90F
:1053C0000E309942A8BF19466FF07E039942B8BFCC
:1053D000194603F015FD40B10848314600F05CFA6B
:1053E0006FF00A00AFE70025D1E7002DF4D186F376
:1053F0001188BFF36F8FF3E7B8160020E41D00207B
:1054000038B5836804466BB3194A926893422CD12D
:10541000C368012B03D9013BC360002038BD4FF0A6
:105420002003EFF3118583F31288BFF36F8F0169B7
:10543000806803F0E5FC204603F06DFDA06058B1E4
:1054400090F90E2022610022826703F02EFD0948A8
:10545000294600F021FAE0E7E06085F31188BFF308
:105460006F8FDAE76FF01500D8E74FF0FF30D5E720
:10547000B8160020E41D002038B504464FF0200384
:10548000EFF3118583F31288BFF36F8F03F043FDB1
:1054900048B10022826703F008FD29460748BDE8AD
:1054A000384000F0F9B9D4E902329A4218BF01330A
:1054B000A36085F31188BFF36F8F38BDE41D002012
:1054C00013B54FF02004EFF3118184F31288BFF37A
:1054D0006F8F846844B1013C846081F31188BFF30D
:1054E0006F8F002002B010BD52EA030406D181F391
:1054F0001188BFF36F8F6FF00F00F3E7CDE9002342
:105500000246024800F064F9ECE700BFE41D002009
:1055100070B504464FF02003EFF3118583F3128832
:10552000BFF36F8F6FF00A06204603F0F4FC18B14A
:10553000866703F0BAFCF7E7A06029460248BDE899
:10554000704000F0A9B900BFE41D0020C3897F2B83
:1055500012D80A4B1B6863B1094B90F90E201B68E7
:105560009A4209DB437BDB0606D1064BC31A18BF00
:10557000012303F0010070470023FAE7E81600203A
:10558000E416002008020020044BC01A044BC0108F
:105590005843044B01221A54704700BF880300206F
:1055A000ABAAAAAAE41D002070B50E4B0E4C1E7CBF
:1055B00006EB460304EBC3040546204603F0DDFC7E
:1055C0000A4B002228469A55FFF7C0FF48B1084B06
:1055D00008491A68013A2046D317BDE8704000F028
:1055E0005BBB70BDB816002088030020E41D0020BE
:1055F000E81600208955000038B50D4D2B4653F8AC
:105600001C4F9C4200D004B9EC68AB6838B95A7B97
:10561000D20604D1A26912B9DA897F2A05D89C4240
:1056200002D02046FFF7C0FF2346AB6138BD00BF64
:10563000B816002070B590F90D20437B002A014672
:1056400004DA03F07F03437303F0F5FB4B7B154A49
:1056500063F07F0310464B7350F81C3F146A83427B
:1056600008BF002323B9C1E90004216011620CE0E6
:1056700091F90E5093F90E60B5420ED0AE420CDD9A
:105680005868C1E90030016059609068431A584277
:10569000BDE870405841FFF7AFBF9C42E3D01B68A4
:1056A000E0E700BFB816002070B490F90D30427BDF
:1056B000002B29DBD30627D183692BBB134962F06A
:1056C0007F0242730A4652F81C4F944218BF234689
:1056D0000C6A23B9C0E90024206008620CE090F94C
:1056E0000E5093F90E60B5420AD0AE4208DD5A68FA
:1056F000C0E900321060586070BC0020FFF77CBF2A
:10570000A342E7D01B68E4E770BC7047B8160020DE
:1057100008B590F90D20437B002A014604DA03F016
:105720007F03437303F087FB044B9868431A584286
:105730005841BDE80840FFF75FBF00BFB816002022
:1057400070B515461C46064603F087FBB4F1FF3FD3
:1057500008BFB5F1FF3F08D02A46234606F11800DE
:105760000249BDE8704000F097BA70BD0F8F00008D
:1057700038B54FF02003EFF3118583F31288BFF3A0
:105780006F8F104B104A9C681068A04206D1FFF73B
:105790000BFF85F31188BFF36F8F38BD00211B7C91
:1057A00011600A4AD35C002BF3D02046FFF7CEFEEF
:1057B0000028EED0637BDB0602D12046FFF73AFFDC
:1057C0002046E4E7B8160020E0160020E41D002083
:1057D00070B50C480C4D86682E600C461146DDE90C
:1057E00004234FF02006EFF3118586F31288BFF3F0
:1057F0006F8F8068FFF7A4FF2046BDE87040FCF77C
:105800004DBB00BFB8160020E0160020F8B50446D6
:105810004FF02003EFF3118683F31288BFF36F8FED
:10582000437BDA0649B219D18569BDB903F07F031C
:10583000437303F000FB437B164A817363F07F03DD
:105840004373134653F81C0F984218BF0546106A5D
:105850005DB9C4E900300460146211E0A173002056
:1058600086F31188BFF36F8FF8BD95F90E70B942BA
:105870000BD08F4209DD6B68C4E900531C606C607B
:105880000120FFF7B9FE0120EAE7A842E1D02D6828
:10589000DEE700BFB816002049B9EFF3058030B944
:1058A000054B9A699B689A4201D0FCF7F7BA81F3DD
:1058B0001188BFF36F8F7047B816002010B54FF0F6
:1058C0002002EFF3118482F31288BFF36F8F427BC3
:1058D000510704D484F31188BFF36F8F10BD22F0F9
:1058E00004024273FFF7E0FE21460248BDE8104083
:1058F000FFF7D2BFE51D002070B50446183003F055
:105900003CFB4FF02003EFF3118683F31288BFF3C3
:105910006F8F94F90D20637B002A05DA03F07F0373
:105920006373204603F087FA0B4D637BA86843F04E
:1059300010036373031B58425841FFF75DFE86F363
:105940001188BFF36F8FAB68A34203D1BDE87040ED
:1059500003F009BB70BD00BFB81600204FF0200354
:10596000EFF3118183F31288BFF36F8F044B9A68B2
:10597000D37B013BD37381F31188BFF36F8F7047E3
:10598000B816002010B54FF02003EFF3118483F315
:105990001288BFF36F8F084B9A68D37B0133D373A0
:1059A0000020FFF729FE84F31188BFF36F8FBDE855
:1059B000104003F0D8BA00BFB8160020024B03F124
:1059C0001C02C3E907227047B8160020F8B54FF053
:1059D0002003EFF3118583F31288BFF36F8F19490A
:1059E0008868437B03F07F03437303F024FA8B68DA
:1059F0005A7B084662F07F025A7350F81C2F0C6ADB
:105A0000824208BF002222B9C3E9000423600B626E
:105A10000CE093F90E6092F90E70BE420ED0B742C0
:105A20000CDD5168C3E900210B6053600120FFF7D2
:105A3000E3FD2846BDE8F840FCF730BAA242E3D0C7
:105A40001268E0E7B816002050EA01032DE9F041A2
:105A500005460E4603D1FFF7B9FF00202CE0831C5A
:105A600071F1FF332ADB03F09EFA2C184FF020036C
:105A7000EFF3118883F31288BFF36F8F114F124B2E
:105A8000B8681860FFF744FEB86810492A463346E4
:105A9000183000F001F9BA68537B43F010035373D8
:105AA0004046FCF7FBF903F07EFA201A63EB030390
:105AB000012873F10003D0DBBDE8F0816FF0010431
:105AC000241AD3E7B8160020E01600200F8F00003C
:105AD000B1F1FF3F08BFB0F1FF3F08B506D1084B59
