:0200000280007C
:105000003DB8F3960000000000020000800A060090
:105010000000000000000000000000000000000090
:10502000FFFFFFFFFFFFFFFFFFFFFFFFFFFFFFFF90
:10503000FFFFFFFFFFFFFFFFFFFFFFFFFFFFFFFF80
:10504000FFFFFFFFFFFFFFFFFFFFFFFFFFFFFFFF70
:10505000FFFFFFFFFFFFFFFFFFFFFFFFFFFFFFFF60
:10506000FFFFFFFFFFFFFFFFFFFFFFFFFFFFFFFF50
:10507000FFFFFFFFFFFFFFFFFFFFFFFFFFFFFFFF40
:10508000FFFFFFFFFFFFFFFFFFFFFFFFFFFFFFFF30
:10509000FFFFFFFFFFFFFFFFFFFFFFFFFFFFFFFF20
:1050A000FFFFFFFFFFFFFFFFFFFFFFFFFFFFFFFF10
:1050B000FFFFFFFFFFFFFFFFFFFFFFFFFFFFFFFF00
:1050C000FFFFFFFFFFFFFFFFFFFFFFFFFFFFFFFFF0
:1050D000FFFFFFFFFFFFFFFFFFFFFFFFFFFFFFFFE0
:1050E000FFFFFFFFFFFFFFFFFFFFFFFFFFFFFFFFD0
:1050F000FFFFFFFFFFFFFFFFFFFFFFFFFFFFFFFFC0
:10510000FFFFFFFFFFFFFFFFFFFFFFFFFFFFFFFFAF
:10511000FFFFFFFFFFFFFFFFFFFFFFFFFFFFFFFF9F
:10512000FFFFFFFFFFFFFFFFFFFFFFFFFFFFFFFF8F
:10513000FFFFFFFFFFFFFFFFFFFFFFFFFFFFFFFF7F
:10514000FFFFFFFFFFFFFFFFFFFFFFFFFFFFFFFF6F
:10515000FFFFFFFFFFFFFFFFFFFFFFFFFFFFFFFF5F
:10516000FFFFFFFFFFFFFFFFFFFFFFFFFFFFFFFF4F
:10517000FFFFFFFFFFFFFFFFFFFFFFFFFFFFFFFF3F
:10518000FFFFFFFFFFFFFFFFFFFFFFFFFFFFFFFF2F
:10519000FFFFFFFFFFFFFFFFFFFFFFFFFFFFFFFF1F
:1051A000FFFFFFFFFFFFFFFFFFFFFFFFFFFFFFFF0F
:1051B000FFFFFFFFFFFFFFFFFFFFFFFFFFFFFFFFFF
:1051C000FFFFFFFFFFFFFFFFFFFFFFFFFFFFFFFFEF
:1051D000FFFFFFFFFFFFFFFFFFFFFFFFFFFFFFFFDF
:1051E000FFFFFFFFFFFFFFFFFFFFFFFFFFFFFFFFCF
:1051F000FFFFFFFFFFFFFFFFFFFFFFFFFFFFFFFFBF
:1052000040E30120AD8602002914050081860200DA
:105210008186020081860200818602000000000073
:10522000000000000000000000000000017D0200FE
:105230008186020000000000997C02008186020045
:10524000C17D0200095E0500C17D0200C17D020032
:10525000C17D0200C17D0200C17D0200C17D02004E
:10526000BF5D0500C17D0200C17D0200F35D050048
:10527000C17D0200C17D0200C17D0200C17D02002E
:10528000C17D0200C17D0200C17D0200C17D02001E
:10529000C17D0200C17D0200C17D0200C17D02000E
:1052A000C17D0200C17D0200C17D0200C17D0200FE
:1052B000C17D0200C17D0200C17D0200C17D0200EE
:1052C000C17D0200C17D0200C17D0200C17D0200DE
:1052D000C17D0200C17D0200C17D0200C17D0200CE
:1052E000C17D0200C17D0200C17D0200C17D0200BE
:1052F000C17D0200C17D0200C17D0200C17D0200AE
:1053000081F0004102E000BF83F0004330B54FEA76
:1053100041044FEA430594EA050F08BF90EA020FE3
:105320001FBF54EA000C55EA020C7FEA645C7FEA76
:10533000655C00F0E2804FEA5454D4EB5555B8BF99
:105340006D420CDD2C4480EA020281EA030382EA0A
:10535000000083EA010180EA020281EA0303362D9C
:1053600088BF30BD11F0004F4FEA01314FF4801C6F
:105370004CEA113102D0404261EB410113F0004F81
:105380004FEA03334CEA133302D0524263EB430338
:1053900094EA050F00F0A780A4F10104D5F1200ED6
:1053A0000DDB02FA0EFC22FA05F2801841F1000131
:1053B00003FA0EF2801843FA05F359410EE0A5F105
:1053C00020050EF1200E012A03FA0EFC28BF4CF036
:1053D000020C43FA05F3C01851EBE37101F00045EC
:1053E00007D54FF0000EDCF1000C7EEB00006EEBF9
:1053F0000101B1F5801F1BD3B1F5001F0CD3490883
:105400005FEA30004FEA3C0C04F101044FEA4452D9
:1054100012F5800F80F09A80BCF1004F08BF5FEA60
:10542000500C50F1000041EB045141EA050130BD40
:105430005FEA4C0C404141EB0101013C28BFB1F552
:10544000801FE9D291F0000F04BF01460020B1FA9D
:1054500081F308BF2033A3F10B03B3F120020CDA70
:105460000C3208DD02F1140CC2F10C0201FA0CF04E
:1054700021FA02F10CE002F11402D8BFC2F1200CB3
:1054800001FA02F120FA0CFCDCBF41EA0C01904069
:10549000E41AA2BF01EB0451294330BD6FEA0404B2
:1054A0001F3C1CDA0C340EDC04F11404C4F120029D
:1054B00020FA04F001FA02F340EA030021FA04F3AF
:1054C00045EA030130BDC4F10C04C4F1200220FA06
:1054D00002F001FA04F340EA0300294630BD21FA44
:1054E00004F0294630BD94F0000F83F4801306BF0A
:1054F00081F480110134013D4EE77FEA645C18BFFE
:105500007FEA655C29D094EA050F08BF90EA020F94
:1055100005D054EA000C04BF1946104630BD91EA8C
:10552000030F1EBF0021002030BD5FEA545C05D18F
:105530004000494128BF41F0004130BD14F58004CE
:105540003CBF01F5801130BD01F0004545F0FE4142
:1055500041F470014FF0000030BD7FEA645C1ABF77
:10556000194610467FEA655C1CBF0B46024650EAAE
:10557000013406BF52EA033591EA030F41F40021DA
:1055800030BD00BF90F0000F04BF0021704730B560
:105590004FF4806404F132044FF000054FF0000135
:1055A00050E700BF90F0000F04BF0021704730B5F6
:1055B0004FF4806404F1320410F0004548BF4042CB
:1055C0004FF000013EE700BF42004FEAE2014FEA20
:1055D00031014FEA02701FBF12F07F4393F07F4FFB
:1055E00081F06051704732F07F4208BF704793F0FE
:1055F0007F4F04BF41F40021704730B54FF4607411
:1056000001F0004521F000411CE700BF50EA010213
:1056100008BF704730B54FF000050AE050EA0102BC
:1056200008BF704730B511F0004502D5404261EB2C
:1056300041014FF4806404F132045FEA915C3FF46D
:10564000D8AE4FF003025FEADC0C18BF03325FEA0A
:10565000DC0C18BF033202EBDC02C2F1200300FABB
:1056600003FC20FA02F001FA03FE40EA0E0021FAE0
:1056700002F11444BDE600BF70B54FF0FF0C4CF4CE
:10568000E06C1CEA11541DBF1CEA135594EA0C0F80
:1056900095EA0C0F00F0DEF82C4481EA030621EABB
:1056A0004C5123EA4C5350EA013518BF52EA0335F6
:1056B00041F4801143F4801338D0A0FB02CE4FF0A8
:1056C0000005E1FB02E506F00042E0FB03E54FF0D8
:1056D0000006E1FB03569CF0000F18BF4EF0010ED0
:1056E000A4F1FF04B6F5007F64F5407404D25FEACC
:1056F0004E0E6D4146EB060642EAC62141EA55517F
:105700004FEAC52040EA5E504FEACE2EB4F1FD0CC0
:1057100088BFBCF5E06F1ED8BEF1004F08BF5FEA3E
:10572000500E50F1000041EB045170BD06F00046F0
:1057300046EA010140EA020081EA0301B4EB5C049D
:10574000C2BFD4EB0C0541EA045170BD41F4801195
:105750004FF0000E013C00F3AB8014F1360FDEBFBA
:10576000002001F0004170BDC4F10004203C35DA96
:105770000C341BDC04F11404C4F1200500FA05F319
:1057800020FA04F001FA05F240EA020001F00042BA
:1057900021F0004110EBD37021FA04F642EB060130
:1057A0005EEA430E08BF20EAD37070BDC4F10C045A
:1057B000C4F1200500FA04F320FA05F001FA04F21E
:1057C00040EA020001F0004110EBD37041F100010A
:1057D0005EEA430E08BF20EAD37070BDC4F1200515
:1057E00000FA05F24EEA020E20FA04F301FA05F27D
:1057F00043EA020321FA04F001F0004121FA04F225
:1058000020EA020000EBD3705EEA430E08BF20EAF4
:10581000D37070BD94F0000F0FD101F0004640002E
:1058200041EB010111F4801F08BF013CF7D041EAB0
:10583000060195F0000F18BF704703F000465200B4
:1058400043EB030313F4801F08BF013DF7D043EA85
:105850000603704794EA0C0F0CEA135518BF95EA3B
:105860000C0F0CD050EA410618BF52EA4306D1D1C2
:1058700081EA030101F000414FF0000070BD50EAE1
:10588000410606BF1046194652EA430619D094EA6B
:105890000C0F02D150EA013613D195EA0C0F05D155
:1058A00052EA03361CBF104619460AD181EA0301A9
:1058B00001F0004141F0FE4141F470014FF0000061
:1058C00070BD41F0FE4141F4780170BD70B54FF0FC
:1058D000FF0C4CF4E06C1CEA11541DBF1CEA13557C
:1058E00094EA0C0F95EA0C0F00F0A7F8A4EB05045E
:1058F00081EA030E52EA03354FEA013100F0888055
:105900004FEA03334FF0805545EA131343EA12631D
:105910004FEA022245EA111545EA10654FEA0026D2
:105920000EF000419D4208BF964244F1FD0404F58B
:10593000407402D25B084FEA3202B61A65EB0305E7
:105940005B084FEA32024FF480104FF4002CB6EBA4
:10595000020E75EB030E22BFB61A754640EA0C0024
:105960005B084FEA3202B6EB020E75EB030E22BF64
:10597000B61A754640EA5C005B084FEA3202B6EBA5
:10598000020E75EB030E22BFB61A754640EA9C0064
:105990005B084FEA3202B6EB020E75EB030E22BF34
:1059A000B61A754640EADC0055EA060E18D04FEAF2
:1059B000051545EA16754FEA06164FEAC30343EA92
:1059C00052734FEAC2025FEA1C1CC0D111F4801F5F
:1059D0000BD141EA00014FF000004FF0004CB6E758
:1059E00011F4801F04BF01430020B4F1FD0C88BFF7
:1059F000BCF5E06F3FF6AFAEB5EB030C04BFB6EB02
:105A0000020C5FEA500C50F1000041EB045170BDF4
:105A10000EF0004E4EEA113114EB5C04C2BFD4EB21
:105A20000C0541EA045170BD41F480114FF0000EA5
:105A3000013C90E645EA060E8DE60CEA135594EA21
:105A40000C0F08BF95EA0C0F3FF43BAF94EA0C0F24
:105A50000AD150EA01347FF434AF95EA0C0F7FF499
:105A600025AF104619462CE795EA0C0F06D152EAED
:105A700003353FF4FDAE1046194622E750EA4106D1
:105A800018BF52EA43067FF4C5AE50EA41047FF4E2
:105A90000DAF52EA43057FF4EBAE12E74FEA410245
:105AA000B2F1E04324BFB3F5001CDCF1FE5C0DD97C
:105AB00001F0004C4FEAC0024CEA5070B2F1004FC6
:105AC00040EB830008BF20F00100704711F0804FC9
:105AD00021D113F13872BCBF01F00040704741F48E
:105AE00080114FEA5252C2F11802C2F1200C10FA92
:105AF0000CF320FA02F018BF40F001004FEAC12376
:105B00004FEAD32303FA0CFC40EA0C0023FA02F319
:105B10004FEA4303CCE77FEA625307D150EA0133EF
:105B20001EBF4FF0FE4040F44000704701F00040BF
:105B300040F0FE4040F40000704700BF80F000409D
:105B400002E000BF81F0004142001FBF5FEA410355
:105B500092EA030F7FEA226C7FEA236C6AD04FEA55
:105B60001262D2EB1363C1BFD2184140484041409A
:105B7000B8BF5B42192B88BF704710F0004F40F44C
:105B8000000020F07F4018BF404211F0004F41F468
:105B9000000121F07F4118BF494292EA030F3FD034
:105BA000A2F1010241FA03FC10EB0C00C3F1200347
:105BB00001FA03F100F0004302D5494260EB4000D6
:105BC000B0F5000F13D3B0F1807F06D340084FEA41
:105BD000310102F10102FE2A51D2B1F1004F40EB36
:105BE000C25008BF20F0010040EA0300704749009E
:105BF00040EB0000013A28BFB0F5000FEDD2B0FA3B
:105C000080FCACF1080CB2EB0C0200FA0CF0AABF5D
:105C100000EBC25052421843BCBFD04018437047FB
:105C200092F0000F81F4000106BF80F40000013201
:105C3000013BB5E74FEA41037FEA226C18BF7FEAD8
:105C4000236C21D092EA030F04D092F0000F08BF1A
:105C50000846704790EA010F1CBF0020704712F001
:105C60007F4F04D1400028BF40F00040704712F140
:105C700000723CBF00F50000704700F0004343F0A5
:105C8000FE4040F4000070477FEA226216BF0846DB
:105C90007FEA23630146420206BF5FEA412390EA9E
:105CA000010F40F4800070474FF0000304E000BF94
:105CB00010F0004348BF40425FEA000C08BF704745
:105CC00043F0964301464FF000001CE050EA010209
:105CD00008BF70474FF000030AE000BF50EA01021E
:105CE00008BF704711F0004302D5404261EB41010B
:105CF0005FEA010C02BF84460146002043F0B64330
:105D000008BFA3F18053A3F50003BCFA8CF2083A54
:105D1000A3EBC25310DB01FA02FC634400FA02FC5D
:105D2000C2F12002BCF1004F20FA02F243EB020064
:105D300008BF20F00100704702F1200201FA02FCC6
:105D4000C2F1200250EA4C0021FA02F243EB0200B9
:105D500008BF20EADC7070474FF0FF0C1CEAD052FD
:105D60001EBF1CEAD15392EA0C0F93EA0C0F6FD0BE
:105D70001A4480EA010C400218BF5FEA41211ED09C
:105D80004FF0006343EA501043EA5111A0FB013188
:105D90000CF00040B1F5000F3EBF490041EAD3715D
:105DA0005B0040EA010062F17F02FD2A1DD8B3F1D9
:105DB000004F40EBC25008BF20F00100704790F048
:105DC000000F0CF0004C08BF49024CEA502040EA9A
:105DD00051207F3AC2BFD2F1FF0340EAC250704760
:105DE00040F400004FF00003013A5DDC12F1190F9E
:105DF000DCBF00F000407047C2F10002410021FA10
:105E000002F1C2F1200200FA02FC5FEA310040F127
:105E1000000053EA4C0308BF20EADC70704792F0A0
:105E2000000F00F0004C02BF400010F4000F013AD8
:105E3000F9D040EA0C0093F0000F01F0004C02BFD3
:105E4000490011F4000F013BF9D041EA0C018FE742
:105E50000CEAD15392EA0C0F18BF93EA0C0F0AD048
:105E600030F0004C18BF31F0004CD8D180EA01006E
:105E700000F00040704790F0000F17BF90F0004F07
:105E8000084691F0000F91F0004F14D092EA0C0FE9
:105E900001D142020FD193EA0C0F03D14B0218BF7C
:105EA000084608D180EA010000F0004040F0FE40C2
:105EB00040F40000704740F0FE4040F4400070475E
:105EC0004FF0FF0C1CEAD0521EBF1CEAD15392EADD
:105ED0000C0F93EA0C0F69D0A2EB030280EA010CCD
:105EE00049024FEA402037D04FF0805343EA111166
:105EF00043EA10130CF000408B4238BF5B0042F1C4
:105F00007D024FF4000C8B4224BF5B1A40EA0C0068
:105F1000B3EB510F24BFA3EB510340EA5C00B3EB9A
:105F2000910F24BFA3EB910340EA9C00B3EBD10F88
:105F300024BFA3EBD10340EADC001B0118BF5FEADA
:105F40001C1CE0D1FD2A3FF650AF8B4240EBC25003
:105F500008BF20F0010070470CF0004C4CEA5020C4
:105F60007F32C2BFD2F1FF0340EAC250704740F413
:105F700000004FF00003013A37E792F0000F00F005
:105F8000004C02BF400010F4000F013AF9D040EA83
:105F90000C0093F0000F01F0004C02BF490011F417
:105FA000000F013BF9D041EA0C0195E70CEAD1530F
:105FB00092EA0C0F08D142027FF47DAF93EA0C0FF6
:105FC0007FF470AF084676E793EA0C0F04D14B02DA
:105FD0003FF44CAF08466EE730F0004C18BF31F08C
:105FE000004CCAD130F000427FF45CAF31F0004386
:105FF0007FF43CAF5FE700BF4FF0FF3C06E000BF1F
:106000004FF0010C02E000BF4FF0010C4DF804CD41
:106010004FEA40024FEA41037FEA226C18BF7FEA51
:10602000236C11D001B052EA530C18BF90EA010F53
:1060300058BFB2EB030088BFC81738BF6FEAE170E2
:1060400018BF40F0010070477FEA226C02D15FEA7E
:10605000402C05D17FEA236CE4D15FEA412CE1D0EA
:106060005DF8040B704700BF844608466146FFE7B1
:106070000FB5FFF7C9FF002848BF10F1000F0FBD93
:106080004DF808EDFFF7F4FF0CBF012000205DF88C
:1060900008FB00BF4DF808EDFFF7EAFF34BF012011
:1060A00000205DF808FB00BF4DF808EDFFF7E0FFAA
:1060B00094BF012000205DF808FB00BF4DF808EDFB
:1060C000FFF7D2FF94BF012000205DF808FB00BF5E
:1060D0004DF808EDFFF7C8FF34BF012000205DF840
:1060E00008FB00BF4FEA40024FEA41037FEA226CFF
:1060F00002D15FEA402C08D17FEA236C02D15FEA2B
:10610000412C02D14FF0000070474FF00100704762
:106110004FEA4002B2F1FE4F0FD34FF09E03B3EBB4
:1061200012620DD94FEA002343F0004310F0004FF4
:1061300023FA02F018BF404270474FF0000070474A
:1061400012F1610F01D1420205D110F0004008BFE9
:106150006FF0004070474FF00000704742000ED2D1
:10616000B2F1FE4F0BD34FF09E03B3EB126209D492
:106170004FEA002343F0004323FA02F070474FF048
:106180000000704712F1610F01D1420202D14FF0BD
:10619000FF3070474FF00000704700BF7BB972B905
:1061A0000029BEBF00204FF0004106E008BF0028D4
:1061B0001CBF6FF000414FF0FF3000F057B8ADF159
:1061C000080C6DE904CE002909DB002B1ADB0CF06A
:1061D00014FADDF804E0DDE9022304B07047404220
:1061E00061EB4101002B1BDB0CF007FADDF804E04A
:1061F000DDE9022304B0404261EB4101524263EB0E
:1062000043037047524263EB43030CF0F6F9DDF8A9
:1062100004E0DDE9022304B0404261EB4101704734
:10622000524263EB43030CF0E8F9DDF804E0DDE9EA
:10623000022304B0524263EB4303704753B94AB997
:10624000002908BF00281CBF4FF0FF314FF0FF307E
:1062500000F00CB8ADF1080C6DE904CE0CF0CDF9EE
:10626000DDF804E0DDE9022304B07047704700BFA9
:106270002DE9F00791E8F807B2E802105B1854EB3B
:106280000C04B2E802104D4156EB0C06B2E80210C5
:106290004F4158EB0C08B2E8021059EB01095AEBD8
:1062A0000C0A80E8F80780410130BDE8F00770472C
:1062B0002DE9F00791E8F807B2E802105B1A74EBD9
:1062C0000C04B2E802108D4176EB0C06B2E8021025
:1062D0008F4178EB0C08B2E8021079EB01097AEBF8
:1062E0000C0A80E8F80780414042BDE8F00770479B
:1062F0002DE9F007524290E87800B1E88007174096
:10630000DB1918EA020854EB080419EA020955EBF4
:1063100009051AEA020A56EB0A0678C090E87800E6
:10632000B1E8800717407B4118EA020854EB0804E3
:1063300019EA020955EB09051AEA020A56EB0A06A0
:1063400078C080410130BDE8F00770472DE9F007C3
:10635000524290E87800B1E880071740DB1B18EA4A
:10636000020874EB080419EA020975EB09051AEA38
:10637000020A76EB0A0678C090E87800B1E8800758
:106380001740BB4118EA020874EB080419EA020935
:1063900075EB09051AEA020A76EB0A0678C0804115
:1063A0004042BDE8F00770472DE9F00152424FF03E
:1063B000040890E8300091E8C000A31B1340E41AE1
:1063C000F618EB1B1340ED1AFF1830C0C0C1B8F12E
:1063D0000108EED1BDE8F001704700BF00B592E8BA
:1063E000DC072DE9DC07B1E8805702B4A7FB0251B6
:1063F0000A95A8FB020BE7FB6310E9FB62B00B9167
:10640000A8FB0351EAFB6201E7FB64B5E7FB660505
:10641000E8FB6615CDF830B0A9FB03B6EAFB6316BE
:10642000ECFB6356E8FB640BE9FB641BEAFB645B73
:10643000ECFB646B0D90ACFB0230059CEEFB6250F4
:10644000E9FB6460EAFB64B0E7FB6431E8FB64519C
:10645000069CE8FB6461E9FB64B1EAFB64010E930E
:10646000A7FB0432079CE7FB6462E8FB64B2E9FB2C
:106470006402EAFB6412049CE9FB6453EAFB646374
:10648000089CE7FB64B3E8FB6403E9FB6413EAFBE5
:1064900064230F955DF8049B99E80006DDF8008001
:1064A000A9FB0854EAFB68B4DDF81080ECFB680433
:1064B000EEFB6814E9FB6824EAFB6834DDF804802D
:1064C000EEFB6865E9FB68B5EAFB6805DDF814805A
:1064D000ECFB6815EEFB6825E9FB6835EAFB6845CF
:1064E0000F96DDF80880AEFB0876E9FB6806EAFB4C
:1064F0006816DDF81880ECFB6826EEFB6836E9FBD1
:106500006846EAFB6856DDF80C80ECFB68B7EEFBEA
:106510006807E9FB6817EAFB6827DDF81C80ECFBDD
:106520006837EEFB6847E9FB6857EAFB686708B025
:1065300000BD00BF2DE9F14F87B0FFF74FFFDDF839
:106540001C8008F1200888E8FF00FFBC87E87F086E
:10655000BDE8F08F00B591E89857A3FB0352019571
:10656000A3FB0401E3FB6420E3FB67100292A3FB9F
:106570000752E3FB6802E4FB6415E3FB6805E3FBF9
:1065800069250391A4FB07B6E3FB6926E3FB6A5682
:10659000E4FB670BE4FB682BE3FB6A5BE3FB6C6BE0
:1065A0000490A4FB0810E4FB6950E3FB6C60E3FB80
:1065B0006EB0E7FB6721E4FB6951E4FB6A61E3FB32
:1065C0006EB1E4FB6E010592A7FB0832E4FB6A6240
:1065D000E4FB6CB2E4FB6E02E7FB6E12E7FB685370
:1065E000E7FB6963E4FB6CB3E7FB6C03E7FB6E134B
:1065F000E8FB6E230695A7FB0954E7FB6AB4E7FBAB
:106600006C04E8FB6C14E8FB6E24E9FB6E34E8FBD9
:106610006865E7FB6AB5E8FB6A05E8FB6C15E9FB12
:106620006C25E9FB6E35EAFB6E450796A8FB0976FB
:10663000E8FB6A06E9FB6A16E9FB6C26EAFB6C36A6
:10664000EAFB6E46ECFB6E56E8FB69B7E9FB6907AF
:10665000E9FB6A17EAFB6A27EAFB6C37ECFB6C473D
:10666000ECFB6E57EEFB6E6700BD00BF2DE9F14FEE
:1066700087B0FFF76FFFDDF81C8008F1200888E87D
:10668000FF00FFBC87E87F08BDE8F08F30B44FF013
:10669000000310F8014B11F8015B013A84EA05048C
:1066A00043EA0403F5D1A3F101034FEAD37030BCF0
:1066B000704700BF4FF0000310F8012B013943EA87
:1066C0000203F9D1A3F101034FEAD370704700BF71
:1066D00030B411F8014B12F8015B6C4000F8014B2B
:1066E000013BF6D130BC70472DE9F00791E8F8077F
:1066F000B2E802105B1854EB0C04B2E802104D41F2
:1067000056EB0C06B2E802104F4158EB0C08B2E809
:10671000021059EB01095AEB0C0A8941B3F1FF331E
:1067200074F1FF3475F1FF3576F1000677F100075B
:1067300078F1000879F101097AF1FF3A51F100018D
:106740005B184C414D4156F1000657F1000758F1D6
:10675000000859EBD1795AEB010A80E8F807BDE847
:10676000F00770472DE9F00791E8F807B2E802104A
:106770005B1A74EB0C04B2E802108D4176EB0C0648
:10678000B2E802108F4178EB0C08B2E8021079EB06
:1067900001097AEB0C0A89415B184C414D4156F1D5
:1067A000000657F1000758F1000859EBD1795AEB70
:1067B000010A80E8F807BDE8F007704718EB040805
:1067C00059EB05095AEB060A5BEB070B5FF0000C6F
:1067D0004CF1000C18EB050859EB06095AEB070AB7
:1067E0005BEB070B50EB0C005FF0000C51EB0C0166
:1067F00052EB0C0263414CF1000CB8EB070879F145
:1068000000097AF1000A7BEB040BA841B141A241D7
:10681000B3416CF1000CBBEB050BB041B941AA418F
:10682000BB416CF1000C4CF001068CF0020718EB38
:10683000060859EB6C095AEB6C0A7BEB6C0B70EB9E
:106840006C0471EB6C0572EB670653EB6C076CEB39
:106850006C0C18EB0C0059EB0C015AEB0C025BF1C1
:10686000000354F1000455F1000556EBDC7657EBBC
:106870000C0770472DE9F14F87B0FFF7AFFDDDF84A
:106880001080DDF81490DDF818A0FFF797FFBDE841
:10689000000FFFF793FF03B05DF8048B88E8FF005B
:1068A000BDE8F08F2DE9F14F87B0FFF753FEDDF81B
:1068B0001080DDF81490DDF818A0FFF77FFFBDE829
:1068C000000FFFF77BFF03B05DF8048B88E8FF0043
:1068D000BDE8F08F0EB51048017A8DF80110C1792E
:1068E0008DF800108179ADF804104079ADF8020000
:1068F000684606F07DF808B1B32108E00748006853
:10690000029002A80FF02DF9002803D0B721032030
:1069100000F0E2F80EBD00005C580020E0DB000053
:1069200010B528B11422044910F0C8F9002010BD98
:106930006FF0150010BD000000DC000070B56FF0B6
:106940002C05D0BB204C607808B1A81170BD09B3EC
:106950006FF01500002AF9D01C4B891E06292DD294
:10696000DFE801F00306162C191C1078587019E0A6
:1069700091780029EAD0D1780029E7D011781B2935
:10698000E4D351781B29E1D31068C3F8050009E06E
:106990001078987006E01088588103E01188FF296C
:1069A000D4D819730122094900200BF076FFB0F505
:1069B000803F05DB6FF00B0070BDFFE72846FBE76B
:1069C0000121A170F8E70000200000205C580020A1
:1069D000054910B5497811B14FF0FF3010BD06F0F0
:1069E0002BF8002010BD00002000002010B5064C40
:1069F000607820B106F09EFA20780BF06BFD00F075
:106A00004FFE0020607010BD2000002070B50C46C5
:106A1000050002D00CB1600702D06FF0150070BD08
:106A200000F004F9A8B128460BF01AFD0A4D002227
:106A30000A49287020460BF030FF0FF0E8FD0021D6
:106A4000287806F061FAFFF745FF01206870002002
:106A500070BD4FF0FF3070BD200000205C5800205A
:106A600030B589B004000CD00BF0A2FC4FF0FF351C
:106A700020B10AF041FEB0F5FA7F05D9284609B0E9
:106A800030BD6FF01500FAE70F4D10486C6000F054
:106A900081F900206870A87001461E22684610F037
:106AA00087F91E220A49684610F008F91E22694635
:106AB000084810F003F9EFF3108472B600F0FEFD01
:106AC00004B962B60020DAE720000020D5D8000023
:106AD000E2DB00005C5800200EB572B6154A55681E
:106AE000DDB1002203466E460A2403E0B0FBF4F059
:106AF000521CD2B20028F9D1B0540AE0D8B2B0FB8F
:106B0000F4F7B3FBF4F304FB1700521ED2B230309B
:106B1000B054002AF2D13046A847BFF34F8F064841
:106B20000168064A01F4E06111430160BFF34F8F31
:106B300000BFFDE7200000200CED00E00400FA0596
:106B4000064810B581784078014302D04FF0FF30FD
:106B500010BD06F0FFF9002010BD0000200000204D
:106B6000064810B581784078014302D04FF0FF30DD
:106B700010BD06F083F8002010BD000020000020AA
:106B8000064810B581784078014302D04FF0FF30BD
:106B900010BD0FF088F9002010BD0000200000207B
:106BA000064810B581784078014302D04FF0FF309D
:106BB00010BD06F0E1F9002010BD0000200000200B
:106BC000064810B581784078014302D04FF0FF307D
:106BD00010BD0FF07EF9002010BD00002000002045
:106BE000010000010100001B1B0302001F00080040
:106BF0000000000000000000000000000000000095
:106C0000C593BAA9144D8D05304E9B92D7711EE8DD
:106C1000AA02503C014A52681047000078570020F1
:106C2000014A9268104700007857002004484168E4
:106C300019B1806808B1012070470020704700003A
:106C40007857002002490DC881E80D0000207047E8
:106C5000785700207CB5214E0546001D30601F4846
:106C600001F0BCFF0446022804D0042C07D0082CF5
:106C70002DD030E0194928460BF0CCFE2BE03078BF
:106C8000072804D105213E200BF09AFE50B113498C
:106C900028460BF024FFB0F5817F0FD37221082026
:106CA000FFF71AFFB6F80300ADF8000001A9684627
:106CB0000CF0D9F80028D2D05321F0E70028CED02C
:106CC000A97828780BF07CFE0028C8D003E003499F
:106CD00028460BF0CDFE20467CBD000084570020E6
:106CE000402803D2401EC1B2054805E0FF2805D068
:106CF0004038C1B2024808300CF04AB80120704751
:106D000028000020401EC1B201480CF041B800002C
:106D100038000020024902680A61406848617047F3
:106D200028000020054902680A60406842F48C226D
:106D30000A60034A104348607047000028000020A2
:106D4000F8074002024902688A604068C8607047DC
:106D50002800002007484FF0FF3100220160C90CD5
:106D6000416000F108011F200A604A600831C1E952
:106D7000000270472800002010B5FFF7EBFF0FF06E
:106D800008F804460248006800B18047204610BD5C
:106D900040000020014908607047000040000020CA
:106DA0002DE9F04104464FF08050D0F8A0701F4DFF
:106DB0001E4E103D1022002120460FF0F9FF102238
:106DC000002104F110000FF0F3FF2868401C08D1E7
:106DD0006868401C05D1A868401C02D1E868401CC6
:106DE00007D028686A68A968EB6820616261A161C0
:106DF000E361002000F0B4FD8743F80713D1306849
:106E0000401C08D17068401C05D1B068401C02D1FC
:106E1000F068401C07D032687068B168F36822607F
:106E20006060A160E3600020BDE8F0819000001088
:106E300038B54FF0805104462248D1F8A010214DBA
:106E40000268143D521C04D14268D2431204120C51
:106E500035D0C90733D001684068ADF80000C4F8E8
:106E60000110BDF80000A4F80500A07940F0C000B2
:106E7000A0712868401C0CD06868401C09D0A86824
:106E8000401C06D0E868401C03D0002000F068FDDC
:106E900040B110220021E01D0FF08AFF0120207078
:106EA000002038BD2A686968A868EB68C4F8072024
:106EB000C4F80B10C4F80F00C4F81330EEE700203C
:106EC000EDE70000A40000100221018041800021B4
:106ED0000171C52141714BF69321C1800149816047
:106EE00000207047A9144D8D2DE9F041114D01206E
:106EF00055F82030D3B11E79FF2E13D00022411E49
:106F000013D400BF55F8214024B12779B74201D1ED
:106F1000A4782244491EF5D5FF2A06D9FA21172064
:106F2000FFF7DAFD0021197100E01A71401EDFD56C
:106F3000BDE8F0815000002030B503464FEA020062
:106F400003EB400464898C4209D09C78401CB0FB60
:106F5000F4F504FB1500C0B29042F1D1FF2030BD22
:106F60001CB504460022104664F31740CDE900200A
:106F70000BE000BFBDF80400214600F001F920B18C
:106F800040F2D7211720FFF7A7FD684600F0A8F8C8
:106F90000028EFD01CBD000070B50546194850F818
:106FA000214064B3B5F5706F04D340F27E21172001
:106FB000FFF792FD294620460CF000FA0146FF2813
:106FC00004D02046BDE870400CF00CBAA078B5FBA8
:106FD000F0F100FB1150C6B232464FF6F071204678
:106FE000FFF7AAFF0246FF2809D0B24201D00020D5
:106FF000E07029462046BDE870400CF0D9B9002069
:1070000070BD000050000020084A10B552F8214021
:10701000014620460CF0D2F90146FF2804D0204654
:10702000BDE810400CF0DEB9002010BD500000207B
:107030002DE9FF410400184E0D4603942AD0307804
:10704000022802D00020FFF7F3FF03A800F0BCF8ED
:10705000124F2B78D7E90010BA6863F31F60CDE9AF
:10706000001002926946002000F0D2F8D7E9031020
:107070006B787A6963F31F60CDE90010029269466C
:10708000012000F0C5F800F00BF8706804B0001B98
:10709000BDE8F0810020D9E744000020E0E20000D4
:1070A00010B50E4C2078012813D0032802D04FF4DD
:1070B000A37105E0D4E90101814204D040F24911F5
:1070C0001720FFF709FDFFF70FFF042020700020B5
:1070D00010BD02202070606810BD00004400002038
:1070E00010B5044680790E4951F82000A8B14FF63A
:1070F000F073E179827891420FD24A1CE27100EB81
:10710000410252899A42F4D000EB41025289A28096
:107110000CF068F92060002010BD022010BD0000B6
:10712000500000202DE9F04107464FF6FF703880EF
:10713000124850F82140ECB1A5782079B0FBF5F168
:1071400005FB110632464FF6F0712046FFF7F4FEBC
:107150000246FF280ED0A81B1044B0FBF5F105FB3A
:1071600011002179084481B239802046BDE8F04100
:107170000CF01EB90020BDE8F08100005000002096
:107180002DE9F04106460F4850F821503146284677
:107190000CF014F90446FF2812D0D5F80600214659
:1071A0004FEA304728460CF01DF901463046B847F3
:1071B00005EB44014FF6F07048810020BDE8F081F6
:1071C0000320FBE75000002010B510490023B8B1A0
:1071D0000A78022A02D04FF4837106E003220A7073
:1071E0000268540704D040F20B111720FFF774FC1B
:1071F0004C684A6022448A600260CB600B6110BD1B
:10720000012008708B604B6010BD0000440000201E
:107210002DE9F041314D2E78012E04D0032E02D0FD
:107220004FF4907137E08A79082A02D94FF49171AE
:1072300031E0CB79002B4ED05F000A376B68022A11
:107240003B4401D9144601E04FF002042344A3F16A
:10725000010301D9144601E04FF00204A4F1010436
:1072600023EA04038C881444A2F10102A4F101046E
:1072700024EA02044FF6FF72944202D340F22D1129
:1072800009E0032E23D1154EDA1B0C3656F8207078
:1072900027B14FF499711720FFF71EFC46F8202004
:1072A0001480C87990700120D070087A1071086835
:1072B0004FF6F076000CD08008881081002003E0A3
:1072C00002EB4007401C7E81CF798742F8D8C8790D
:1072D00000FB04306860BDE8F0810000440000203D
:1072E0000DC10100E802080000000000EFB6010037
:1072F00010010800FF0000002DE9FF4F244C064656
:1073000081B020689A46934650B1017AB14203D9C0
:10731000406850F8260038B1032005B0BDE8F08F72
:10732000A5211820FFF7D8FB194602980CF07CF82D
:10733000804658460E990CF06DF8054608EB05009E
:10734000001D87B22068A146394600680BF0CBFFCC
:1073500004001AD0678025802946201D0E9D07460F
:107360005A46092300950BF038FF208841463844DF
:107370000A23029ACDF800A00BF02FFFD9F80000E5
:10738000406840F826400020C7E70120C5E700001C
:107390005800002070B5144C23688BB1197A8142D3
:1073A00012D95A6852F8201071B1002542F82050C5
:1073B0004A8818680BF0EFFF216800200A7A0BE07A
:1073C000C6211820FFF788FB032070BD4B6853F8D7
:1073D000203033B9401CC0B28242F7D808680BF0A5
:1073E000CFFF002070BD0000580000202DE9F041C3
:1073F0000D46040090464FF0000606D00027A00777
:1074000005D086211820FFF767FB0127F7E7CDB1EC
:10741000114600200BF098FF0C3000EB85068FB969
:107420000A4F04F10C00AA003C602572606000EB7A
:1074300085002060002160680FF0BAFC4146386882
:107440000BF082FF3046BDE8F081000058000020BC
:1074500070B5084D286800280AD0002404E02046B2
:10746000FFF798FF641CE4B22868007AA042F6D8BF
:1074700070BD000058000020094910B50246096897
:10748000002049B10B7A934205D9496851F822107E
:10749000002900D0081D10BDEC211820FFF71CFBAF
:1074A000580000200A4910B502460968002059B169
:1074B0000B7A934207D9496851F82210002902D06B
:1074C00031F8040B084410BDFA211820FFF704FB23
:1074D0005800002070B51E4B456804460022A1B13B
:1074E00001206070588881085FF0000004EB4003C1
:1074F00004EB80061A83198400FB01537360231880
:10750000401C1A750428F1D370BD62705FF0000052
:1075100004EB40010A830A8404EB80014A602118CD
:10752000401C0A750428F3D35888B0F5FF7F01D2B8
:10753000460800E0FF260BF0EBFF65602084291869
:10754000A1606684E560A0842161E68470BD0000CE
:107550005C0000202DE9F04158B100251144244E73
:10756000CCB200273470810705D04E210920FFF7E7
:10757000B3FA0125F2E71F2B04D84FF6FF7101EA99
:10758000830109E05900FF2B0CD903F1FF02B2EB94
:10759000430F00D2114689B24FF6FC72C91C11404C
:1075A00035B107E07C22B2EB430FF4D37C21F2E744
:1075B0007060718004EB840207EBC20300227668DE
:1075C0004FF0010C0DE04DB902EB820700EB030E0A
:1075D00006F837C006EBC707C7F804E0521C0B4497
:1075E000D2B2A242EFD3DB1D23F00700BDE8F08149
:1075F0005C00002070B5104A00205168127814E039
:1076000000EB800311F833306BB100EB800011EB1D
:10761000C0040CD00025A57001212046FFF75AFFB9
:107620002570204670BD401CC0B29042E8D3A9210D
:107630000920FFF751FA00005C000020044810B553
:10764000408884080BF064FF844200D3204610BDBC
:107650005C00002030B50D4901204860821EC1F851
:1076600008230B4988600023C1F80032C1F80823C1
:10767000084C2360251D28608860C1F8082323601A
:10768000286006490448086030BD000000E0004062
:1076900000F0004000F500400000F63F08F5014012
:1076A00010B5FFF7D7FF0CF00AF80349014808604E
:1076B00010BD00000000F63F08F5014010B5FFF7CF
:1076C000C9FF0BF0FCFF00F081F803490148086096
:1076D00010BD00000000F63F08F501402DE9F84F0D
:1076E000824637480FF04FFADFF8D4B028B10126B0
:1076F0000BF10100FF21017000E000264FF48075BE
:10770000304C4FF000082F1D01216160C4F800814A
:10771000C4F80481C4F804A52160DFF8AC901CE033
:10772000D9F80000C00618D50E200BF0D7FFEFF3F4
:107730001080009072B603212046C4F80413294635
:107740000BF0D9FF30B9394620460BF0D4FF08B909
:107750000FF0B0FA009800B962B6294620460BF047
:10776000CAFF28B9394620460BF0C5FF0028D7D0FC
:10777000394620460BF0BFFF0028C5D10025E6B9E9
:107780009BF801008DF80000009800909DF8000023
:1077900008B1012500E000250BF1010181F800800E
:1077A0000321C4F80813C4F80481C4F800810E2032
:1077B0000BF094FF02480FF0FDF92846BDE8F88F62
:1077C0005803002000E0004010ED00E010B506482E
:1077D0000FF0ECF918B130211D20FFF77DF90248B8
:1077E0000021417010BD0000580300200648074AE0
:1077F000818C5288914204D190F8220008B1002077
:1078000070470120704700007A5800204C03002088
:1078100001494880704700004C0300200848094A8D
:10782000818C5288914209D14FF6FF71818410F802
:10783000221F19B1002101700120704700207047FC
:107840007A5800204C030020074810F8221F012915
:1078500007D0012101700548034900888884012070
:1078600070470020704700007A5800204C03002029
:107870000649074B8A8C5B889A4205D191F82220F1
:1078800012B1016001207047002070477A58002033
:107890004C03002009498A8CA2F57F43FF3B02D0AC
:1078A0000021016007E091F822200449012A02D05A
:1078B0000160012070470020704700007A580020C6
:1078C00001490880704700004C0300200549002052
:1078D00081F822004FF6FF708884034908804880B1
:1078E000704700007A5800204C03002005498A8C1C
:1078F000824205D1002081F822004FF6FF70888473
:10790000704700007A5800200A4A10B1012807D0B9
:107910000EE0507860B1D2F802000860D08804E030
:10792000107828B19068086090898880012070479D
:10793000002070475A030020084A012338B101286B
:1079400004D11370086890608888908170475370E4
:107950000868C2F802008888D08070475A03002067
:10796000064910B1012802D005E0487800E0087807
:1079700008B1012070470020704700005A03002022
:107980000149087670470000325200200148807893
:1079900070470000640000200148C0787047000074
:1079A0006400002070B50C460A4905460848086086
:1079B00000F034F918B1DE212720FFF78DF80648D2
:1079C00001210CF010FA0548C0E90B5470BD00000D
:1079D000E8F30000A80000201052002064000020FE
:1079E0000149012048717047640000202DE9F84FDB
:1079F000634D0A9C2E78002E78D1002A76D0002B79
:107A000074D0002C72D0B04605F11406C5E90F0100
:107A100086E81C0085F8058085F8048085F80280DA
:107A200085F8018085F80380A5F80C80A5F80E8004
:107A300000F06CF9064600F031F9044606F022F831
:107A400005F076FD94F96E0006F0A0F8E06906F006
:107A500085F9606906F078F996F8330006F0B4F914
:107A600005F13C00406890F80D0208B105F084FF74
:107A700094F86B10012005F0BFFE002879D0414832
:107A8000006805F029FF2088FFF70CFD6863208857
:107A9000FFF7F2FCA86306F1800088363A4F96E8BB
:107AA0000E1087E80E108169C7F81910C069C7F871
:107AB0001D00883E00F030F90146208FC2460BF0D1
:107AC0003BFFA18E814200D20846A871A94694F8D6
:107AD0006B1004F12C000CF07EFA94F86B1096F801
:107AE0002380A58F082905D103E0FFE740F2531159
:107AF00043E004210BF020FFB8F1000F01D1001D7D
:107B000080B2854200D22846C5B289F8075089F86C
:107B1000085096F82300D04698B14FF0010987F835
:107B20001890D6E92001C7E9040194F86B000BF026
:107B300054FE03462A4614494846CDF8008005F015
:107B400063FC012000F04EFB10480068032812D0AF
:107B50000B2810D047F84A8FC7F80480C7F8088070
:107B60000948B18A4A3041802188018096F8331053
:107B70000171BDE8F88F4FF402712720FEF7ACFFCA
:107B800064000020A8000020E851002050150040AB
:107B90002DE9FC418846074600F0B8F81A4C054626
:107BA000B807616A4E7816D5A06A30B36289D21CD4
:107BB0000FF084F8A06A6062694601AAA06B0BF01E
:107BC00089FA00980BF03CFAC8F80000314601220F
:107BD000A06B0BF0ECF9F8070DD0D5E920011835B2
:107BE000401C41F10001C5E91A0115F818090128E6
:107BF00008D001202876BDE8FC8140F25F412720B3
:107C0000FEF76AFF0020F5E7640000200248C08903
:107C1000C0F3802070470000640000200448007812
:107C200008B10C2070470349002008767047000017
:107C300064000020325200200C4810B5017849B190
:107C400000F13C010078022808D04FF40971272088
:107C5000FEF742FFBDE8104000F0D0B94868D0F808
:107C60002002BDE8104005F03FBE00006400002087
:107C70001A2001F8030B044850F8562F0A60426896
:107C80004A60806888607047E8510020024A938902
:107C90000343938152691047640000200148406803
:107CA00070470000A0000020014A002152691047DF
:107CB0006400002070B50546012918D8124CA1694E
:107CC0008847A0B1207990B9E5B904F11000017896
:107CD000C80605D4E06A0078C00601D4012000E09F
:107CE0000020A26A2AB962891AB1C90601D401200A
:107CF00070BDA1898A0703D5226AD278022A01D0F1
:107D00000843F4D1002070BD6400002001484068A1
:107D100080307047A000002010B5FFF7BFFF044679
:107D2000FFF7F4FF0246417F1648252910D0262987
:107D30000ED0927F252A0BD020290DD021290BD0DF
:107D4000232A0FD094F86A00042800D1082010BD1F
:107D5000406890F8BE120EE0232A03D0406890F8E5
:107D60003E0105E0416891F83E0191F8631008403A
:107D70000BF029FD014694F86A00BDE810400BF0B5
:107D80003ABD0000A00000202DE9FF5F8B46814630
:107D9000FFF7BCFF0026684C07468DF80860039685
:107DA000019620783546022804D040F2E24127208F
:107DB000FEF792FEA07B400606D44020FFF774FF3A
:107DC000E08940F04000E08197F82300B9F1000F0E
:107DD0003AD080B105F0E6FB05F0C0FB58B9606A07
:107DE000417841B10078397EC0F3C000884202D1A9
:107DF000012060709CE0606A4178618121B1A06BD4
:107E00000BF03EFAA06200E0A562E08940F48070C9
:107E1000E081606AF97D0078C0F38000884207D075
:107E200003A800F091F9E08940F48060E08100E06F
:107E30000126606A397E0078C0F3C00088420DD107
:107E400002A800F037F909E008B105F0A5FBA07819
:107E5000401CA070E08940F40070E081DFF8D8A0F9
:107E600097F822000AF13C0A90B1FFF717FF334957
:107E70000D76D7E91E23C1E9042390F86A000BF0C0
:107E8000ACFC0346FB222D492846009505F0BCFAC0
:107E90004FF00008BBF1000F04D1A1780120FFF7DB
:107EA00009FF20B105F03CFF4FF0010802E000207F
:107EB00000F0D6F99DF8080018B101A90220FFF7DB
:107EC00067FE1E48BA8A49464A305EB12AB9B0F800
:107ED000052012B9B0F8072022B1B0F80920521CD1
:107EE000A0F8092029B130F8051F491C0180A570B0
:107EF00003E030F8071F491C01800F483C3001F0B7
:107F0000EBFA039840B10BF09BF8DAF80410401C30
:107F1000057208220BF0EEFF019830B1DAF8041078
:107F20000572102201980BF0E5FFB8F1000F01D0A7
:107F300000F064F8BDE8FF9F64000020E8510020D5
:107F40002DE9F84388468146FFF7E0FE294D0446B7
:107F50002878012804D040F26E412720FEF7BCFDAE
:107F6000207C0027012628B1277400210420FFF778
:107F70008DFEA674296A0878C043800709D1A07DC8
:107F800088BB0220FFF782FE286A0078C043800782
:107F900029D0286A407810B10220A07500E0A675AB
:107FA00094F8230098B1FFF779FE13492D7A0E76E5
:107FB000D4E92023C1E9042390F86B000BF00DFCF9
:107FC00003462A460C493046009705F01DFA38EA68
:107FD000090004D000210846FFF76CFE28B1BDE877
:107FE000F84300F00BB80320D7E7BDE8F8430020C2
:107FF00000F0F8B864000020E851002010B505F04A
:1080000071FB05F095FA0E4CE089FFF74DFE0D4827
:10801000007E70B10B484A3850F84A1FC160416871
:1080200001618168416107480222074919300BF05C
:1080300075FFE2692179607890470020207010BDBB
:10804000640000203252002071EC0000084810B596
:108050000078022804D040F24E212720FEF73CFD94
:1080600004490120C872BDE81040FFF7C7BF0000F7
:10807000640000203252002030B404460C48007ADC
:108080000BB1001DC0B23AB9FF2805D194F86B209E
:1080900094F86A309A4209D021B194F86B1030BC40
:1080A00005F062BEFF2094F86A10F8E730BC704714
:1080B000640000202DE9F0410746FFF727FE214C20
:1080C00005460126616A087800F0030001280CD0FB
:1080D00002280AD003281BD12E74E08940F40060E6
:1080E000E0810120FFF7D2FD12E0487880B1E189FC
:1080F00041F40061E181A16A002918D0FB2818D859
:10810000607920B1BDE8F0412020FFF7CDBD3E7081
:10811000287E012812D02E76606A4078002806D08A
:10812000F5E92001401C41F10001C5E90001BDE86D
:10813000F081207940F010002071F8E700202876C7
:10814000EAE700006400002070B50546FFF7DEFD99
:108150000446807D00282DD002280CD11B482946DA
:10816000406B0AF0FCFE30B3D4E91E01401C41F123
:108170000001C4E91E010025A575A07C20B1A574ED
:1081800000211020FFF782FD607C70B16574FFF75D
:1081900045FB98B100210820FFF778FDD4E91E01C6
:1081A000401C41F10001C4E91E01E07D01280AD014
:1081B0000120E07570BD40F2DD3101E04FF47D71CA
:1081C0002720FEF789FCE57570BD000064000020E3
:1081D00003480078002801D0FFF710BF7047000067
:1081E000640000202DE9F0410646FFF757FD804668
:1081F000FFF78CFD184C05463246E06A606295F840
:10820000233001214046FFF737FF95F82300002770
:1082100070B1206B05F0DCFC104801210176D5E936
:108220002012C0E90412216B606A05F03FF904E0F6
:10823000606A05F0CDFC05F07BF916B9384605F00B
:1082400077FB002198F86A20084605F04BFD0220D4
:108250002070BDE8F081000064000020E85100209B
:108260002DE9FC470446FFF751FD0546FFF716FDD3
:1082700000278DF800700646DFF8649195F82330EA
:1082800022463946FFF7F8FEA87D4FF00108A9F114
:10829000200440B1012820D002282FD003283BD051
:1082A00040F2FF2157E0A0795021ADF80400885337
:1082B0004846FFF7DDFA30B18020216AFFF7E6FC7F
:1082C00085F811802CE06A4601A9606B0BF09DFADD
:1082D000206210B195F85B1011B1424820621FE096
:1082E0009DF8001021B90780877001210BF07BFDFC
:1082F000BDF80410206A0BF0FEFC11E0B6F8500047
:10830000ADF804006A4601A9606B0BF07EFA2062AA
:1083100030B940F2E9211EE04846FFF7A9FAC0B1A2
:10832000206A0823017801F0F7010170EA7D03EA71
:10833000C202114301F0FB0101702A7E042303EA0B
:108340008202114301F0EF010170C943890705D092
:1083500007E040F2F2212720FEF7BEFBC07802289A
:108360000FD0606B0AF0F9FE08B101210AE0206A23
:108370000078C043800704D0FFF738FA80F001018D
:1083800000E00021206A027842EA0111017095F8AC
:10839000221081B1417871B1206B05F019FC1148B0
:1083A00028380776D5E91E12C0E90412216A206B2D
:1083B00005F07CF803E005F00BFC05F0B9F896F841
:1083C0006B200121002005F08DFC84F80380216AD8
:1083D0000A8822828978A17484F80080BDE8FC872D
:1083E00084000020105200204DF0000089ED0000B4
:1083F00041EF0000D1F1000004494A78824203D9DC
:10840000084490F84201704700207047A0580020AF
:1084100004494A78824203D9084490F84A017047D7
:1084200000207047A058002004494A78824203D9AE
:1084300001EB00108230704700207047A0580020E8
:10844000054A01EB410102EB41010268C1F80A2132
:108450008088A1F80E017047A05800202DE9F04156
:108460000E4607461546062130460BF007FB0D4C1D
:1084700060B1002004E02118401C81F83A51C0B2DC
:1084800061788142F7D80120BDE8F0813146384655
:108490000BF0CAF9082803D0204480F83A51F2E7DB
:1084A0000020F1E7A058002004494A78824203D90D
:1084B00001EB0010801C704700207047A05800207E
:1084C00010B54FF4C572002105480EF071FC054847
:1084D0000021017041704FF46171418010BD0000B6
:1084E000A058002050030020014908707047000088
:1084F000500300200148007870470000500300201E
:108500000B4B10B55C78844210D9184490F80201E6
:10851000C0EBC000184490F852310B70D0F85311E2
:108520001160B0F857019080012010BD002010BDEF
:10853000A05800202DE9F047984691460F46064680
:1085400000F0B0F80446082806D000F097F8082894
:1085500002D01220BDE8F0871F4D6878082838D275
:10856000082C13D12C78601C2870082C03D34321CD
:108570002820FEF7B1FAC4EBC40028443968C0F8DB
:108580005311B988A0F8571180F852616E78102203
:10859000701C687005EB0617B81C49460BF046FACC
:1085A00007F18200102241460BF040FA10214046AC
:1085B0000BF064FA3544102185F84201484605F273
:1085C0002B150BF05BFAE87705F8294C0020E873CF
:1085D000C0E70720BEE70000A0580020064810B5FD
:1085E0004078401E44B204E0E0B200F0BDF8641EE2
:1085F00064B2002CF8DA10BDA05800200148408871
:10860000704700005003002038B14AF2B811884288
:1086100003D80349488001207047002070470000BC
:108620005003002005494A78824203D9084490F853
:108630003A0108B10020704701207047A05800207F
:108640000149487070470000500300200246094865
:1086500010B500780B4658B10748417841B10BB1CD
:10866000801C01E00448823004F028FE012010BD87
:10867000002010BD50030020A0580020084910B56C
:10868000034600204A7806E00C1894F802419C4208
:1086900004D0401CC0B28242F6D8082010BD0000B1
:1086A000A0580020F0B51A4C0346002025782BE096
:1086B000C0EBC00222440F7892F853C192F8526185
:1086C00087EA0C075E403E444F7892F854C187EA2F
:1086D0000C073E448F7892F855C187EA0C073E4458
:1086E000CF7892F856C187EA0C073E440F7992F88A
:1086F00057C192F8582187EA0C073E444F795740FA
:10870000F74204D0401CC0B28542D1D80820F0BD49
:10871000A058002070B50546FFF7B0FF082820D10B
:10872000104C2078401EC0B22070A84219D0C0EB77
:10873000C000C5EBC5012044214400F5AB72D0F860
:108740005201C1F852011088A1F85601907881F8C1
:1087500058012078FFF792FF082802D0204480F8C3
:10876000025170BDA05800202DE9F0471D4C06466F
:10877000A7196078401EC5B2657097F802A1AE4295
:108780002AD004EB051904EB061809F1020108F1DF
:10879000020010220EF092FA09F1820108F1820023
:1087A00010220EF08BFA601905EB450290F80211C9
:1087B00087F8021106EB460104EB420204EB41018B
:1087C000D2F80A31C1F80A31B2F80E21A1F80E210F
:1087D00090F83A0187F83A015046BDE8F047FFF7B4
:1087E00099BF0000A05800202DE9F047044600F191
:1087F00080054FF0010971B104F1A6077E1E012921
:1088000029D002294ED0032923D139463046BDE86C
:10881000F0470BF095B94FF43A7200210EF0C8FA08
:1088200085F825902449E96620460721296710F834
:10883000EC1F21F004010170FE2085F8A6007F20C6
:1088400068761E48A8600020C5E90000202084F852
:108850009402BDE8F0874FF00008A4F8268284F85F
:108860001B82216916480A460844B0FBF1F0C4F89F
:10887000C40040F6B830A4F8C800638B284600F066
:1088800021F8394630460BF05BF90EF0EFF918B1DC
:10889000606903F08DFF10B184F80D82D9E784F888
:1088A0000D92D6E70169B4F8CA32D4F8C42228463A
:1088B000BDE8F04700F006B82F4904C400E0FCFF13
:1088C0007FC3C90110B50024A0F84C4030F8504FC8
:1088D0004C43B4FBF2F420F8104940F27124634396
:1088E00002EB03135B1EB3FBF2F3C381094BB3FB33
:1088F000F2F35B1C83820389634302EB03135B1E69
:10890000B3FBF2F3436003684B43B3FBF2F1016046
:1089100010BD0000005A6202024991F900100BF0EC
:10892000C0B800006803002002490978494249B2F2
:108930000BF0B7B86803002008B57F208DF8000061
:10894000684605F0F5F940B105484078404241B22B
:108950009DF900000BF0A5F808BD9DF9000008BDC9
:1089600068030020014A10705170704768030020AE
:108970000CB504A1D1E90001CDE90001684600F081
:1089800005F80CBDFFFFFFFF1F0000000549FF2297
:108990000A700A460368C2F801300079507100205D
:1089A000087070476A03002070B590F8322090F884
:1089B0003130012403FB01212522B1FBF2F302FB3C
:1089C000131100EBD10280F8321001F0070392F886
:1089D000262004FA03F31A4204D000BF80F83310B3
:1089E000002070BD90F83020B1FBF2F302FB1311B0
:1089F000491CC9B20023C51895F82B208A4212D30E
:108A000095F82650002200BF04FA02F6354201D044
:108A1000491EC9B221B1521CD2B2082AF4D304E0D3
:108A200002EBC301DAE7891AC9B25B1CDBB2052B82
:108A3000E1D31F2070BD000070B5491C0023C9B2EE
:108A40000124C518AA798A4212D395F80150002250
:108A500004FA02F6354201D0491EC9B221B1521CB6
:108A6000D2B2082AF4D305E002EBC300C0B270BD55
:108A7000891AC9B25B1CDBB2052BE2D39D214620CB
:108A8000FEF72AF8417841B1C0782B2803D2044A76
:108A9000105C884201D1012070470020704700001F
:108AA000A4DE010010B50122C1702B2902D2064AB2
:108AB000525C06E0FF2904D040F274412A20FEF700
:108AC0000BF8427010BD0000A4DE01000449897C4F
:108AD000490700D408B1002070470120704700000A
:108AE000C85700200348807C800701D401207047CC
:108AF00000207047C85700200348807CC00701D081
:108B00000020704701207047C85700202DE9FE4320
:108B1000884699461546044669460AF09EFEE0BB23
:108B2000019E002780367DB12046FEF7BBFC040085
:108B30000ED029460AF0E3FA18B11B494988A94228
:108B400008D20020BDE8FE83012086F8240024E03E
:108B5000672125E0014602AA20460AF0C9FA0298D8
:108B60000780877096F8241009B14FF0020841463B
:108B70000BF039F902982A464946C01C0EF09EF8BF
:108B8000204629460AF072FA48B168460BF086F989
:108B90000198A0F8127286F824700120D2E77C2197
:108BA0002B20FDF799FF0000C8570020094882B02C
:108BB000007A8DF80000009800909DF800000028D1
:108BC00005D102220449034802B00BF093B902B068
:108BD00070470000E05700203BAF01002DE9F84F3F
:108BE000DFF874915D4F83464FF0010A00267868E4
:108BF0003546007A8DF80000009800909DF800102E
:108C0000102906D199F8131019B1B9F814000028E9
:108C100073D08DF80060684600F004F99DF80010EC
:108C20000029F8D1002868D00446007A8DF80000A9
:108C3000009800909DF8008004F108000521009044
:108C400001704046B8F1080F42D007DC02280DD071
:108C5000032817D0B8F1040F05D11DE00F2852D01A
:108C6000B8F1100F57D040F2472163E0626832B18B
:108C7000594620469047042060F3070510E04FF462
:108C8000E07157E0626822B1594620469047054698
:108C900006E040F2C9114DE06168B1B12046884755
:108CA000C5F30720012848D0EFF3108072B6217A6F
:108CB0008DF80010009900919DF80010052940D012
:108CC000A1B366F3070590B33FE040F2D31131E062
:108CD00060685D4698B104882046FEF7E3FB80B1EA
:108CE0000B212970A5F80340A5F805A085F802A07E
:108CF00000210AF09BFA04203E61BDE8F88FE321D1
:108D000018E0C52116E015218BF80010D4F80910E1
:108D1000CBF80310AFE71248026822B1606838B19F
:108D200000885946904702203E61E6E709E00BE0E3
:108D300040F23D211020FDF7CFFE00984146017022
:108D400003E026723E61BEE762B615F0FF0F3FF406
:108D50004EAFE8B2D1E70000C8570020F45700201A
:108D6000AC0000200149087000F0BEB8700300207C
:108D7000024901480860704781FD0000AC000020F6
:108D800038B50D0014D0A88000216972FEF774FB7D
:108D900004460AF08FF970B101466A4620460AF08F
:108DA000A7F9E88050B1FB280BD94FF4907133E05C
:108DB0004FF4887130E040F219112DE04FF48F71BB
:108DC0002AE000980AF0BBFF012804D0022802D054
:108DD0004FF4987120E028722868A8B10099EA88B9
:108DE000C91C0DF06BFF20460AF02CF978B1204623
:108DF00000210AF01BFA68B10948C17C002902D0A1
:108E0000818A491E818238BD40F2371104E04FF457
:108E10009E7101E040F241111020FDF75DFE00005F
:108E2000C857002038B50346174900201870086954
:108E3000012440B1027A8DF80020009A00929DF83A
:108E40000050002D11D14868027A8DF80020009A58
:108E500000929DF80050012D06D0EFF3108272B6FB
:108E600005684D6012B102E0002038BD62B6027A9A
:108E70008DF80020009A00929DF800500DB1086115
:108E800038BD1C7038BD0000F457002038B5D0B193
:108E9000416000F108010A70EFF3108372B6104CC4
:108EA0000460211F4A684AB1127A8DF80020009AA6
:108EB00000929DF80050012D00D10C600A681060EE
:108EC00008602BB105E040F272211020FDF704FE8E
:108ED00062B604480078BDE8384009F0DFBA000007
:108EE000F85700207003002010B514220021084814
:108EF0000DF05EFF06481222002114380DF058FFD5
:108F0000034801210173011D4160016010BD000093
:108F1000F4570020F0B4A2F809000C89A2F80B4025
:108F20008B89A2F80D304889A2F80F00CD89A2F8EC
:108F30001150CE8DAE4208D14D8D854205D10D8E9A
:108F40009D4202D18B8DA34201D0012300E000237A
:108F5000D3744885B2F81100C885B2F80B00888533
:108F6000B2F80D000886F0BC014910460AF0BCBFFB
:108F70009DFF0000A2F80900888AA2F80B00C88AA9
:108F8000A2F80D00088BA2F80F00488BA2F8110080
:108F9000014910460AF0A5BFE1FF000038B5A0F175
:108FA0001605C07C0C4600F00100FFF78FFD002184
:108FB00008B100910FE01120207055F81F0FC4F880
:108FC00002006868C4F8060028896081A87A2073C6
:108FD000024840680090BDF8000038BD68000100FC
:108FE00070B586B00E460446FFF77CFD002558B3E9
:108FF000A4F5BA702572048803A920460CF07DFD03
:1090000008B1FC2117E0ADF80040BDF81200ADF842
:109010000200BDF81400ADF80400BDF80E00ADF874
:109020000600BDF81000ADF8080068460CF0A1FD80
:1090300020B140F205112C20FDF74EFDCDF8005077
:10904000BDF8000006B070BD182006F8030B54F8F8
:10905000090F3060606870602089308101480068C5
:109060000090EDE76800010004000000040000002B
:1090700070B50C4DA5F1080408210A48FDF7D0FD94
:10908000286810B968680028F6D000F013F820604E
:1090900000F010F860602168002901D10028F4D0A8
:1090A00070BD0000B8000020014800F009B80000C1
:1090B000B0000020014800F003B80000B800002014
:1090C00010B5D0E90021094B094C5343544351409A
:1090D00081EAB21282EA41224FEAF141C0E900215D
:1090E00043EAD46303EB8303184610BD6037EFC631
:1090F000BB79379E70B5044640680D46012390F851
:109100009E20002180300AF0BFFBD0B128460AF033
:10911000BCFD6168A1F8BC026168B1F89420801AB6
:1091200000B247F6FE7290420DDC00280BDD2846A7
:1091300001F2BE210AF0A4FD61680A2081F89E00B8
:109140000AE0012070BD282081F8BD00606802227D
:109150000249B4300AF0CEFE002070BD0FB201000B
:1091600070B5044640680D46012390F89E2000210A
:1091700080300AF089FBE8B3002128460AF088FD18
:10918000C8B36168B5F80D00A1F8BC026168B1F818
:109190009420801A00B247F6FE72904234DC002818
:1091A00032DD28460AF09EFD0AF064FB0646606840
:1091B0003146C0F8C46228790AF057FC6168A1F80A
:1091C000BE02B5F8050031460AF04BFC6168C1F8F3
:1091D000C00228460AF089FD6168A1F8C802284645
:1091E0000AF086FD6168A1F8CA0261680D2081F865
:1091F0009E0012E000E001E0012070BD29462046FB
:10920000BDE870400AF0C2BF282081F8BD00606848
:1092100002220349B4300AF06DFE002070BD000048
:109220000FB2010070B5044640680D46012390F866
:109230009E20002180300AF027FB70B9606890F80A
:109240009E20132A09D00123052180300AF01CFB3F
:1092500008B1082070BD012070BD606890F8DC0086
:1092600010B920460AF07CFF6168284601F50A71B2
:109270000AF057FD6168284601F58C710AF048FD37
:1092800060680188A0F8D5126168284601F2D721EC
:109290000AF042FD6168284601F2DF210AF035FD3F
:1092A00060680222054900F533700AF023FE616808
:1092B000152081F89E00002070BD0000AFB30100B2
:1092C00070B54468091D002594F88C008034C007EF
:1092D00001D0012070BD486809680C4B41F60702B7
:1092E0001940E166104020671B2104F16C000BF06F
:1092F000B1F8A4F8585094F85A00401C84F85A0069
:10930000E06840F00100E060002070BD2F4904F7E4
:1093100010B5041D03F082FE034B41F6070218400E
:1093200011402060616010BD2F4904F72DE9F8431A
:10933000037840680F1D00F1800500F5A57406460E
:109340004FF000086A7F072128460AF09DFAE0B135
:109350003968184B7868194041F60702E9661040F1
:1093600028671B2105F16C000BF074F885F8568016
:1093700085F81D8094F8601040468DF80010009923
:1093800000919DF8001091B902E00120BDE8F8833A
:109390003188A4F8621084F86100396861667968E0
:1093A000A1660222044904F158000AF0A3FD00203E
:1093B000ECE700002F4904F7C1B4010070B50D1DA2
:1093C000446803F02BFE41F60702054B114094F868
:1093D000EC201840024062F307002860696070BD0D
:1093E0002F4904F7416882B001F5A57091F8AA21D0
:1093F0008DF80020009A00929DF80020002A0BD1E1
:109400000988A0F862101A2180F86110022203492D
:10941000583002B00AF06EBD02B07047C1B401000E
:1094200070B544680D46037894F89D20803400267A
:10943000082120460AF028FA20B9207B800701D5B0
:10944000012070BD94F85D00800719D428460AF009
:10945000E4FC84F8670035F8050FA4F86800688814
:10946000A4F86A0094F85D0040F0020084F85D0002
:10947000C00709D00222114904F15E000AF04EFD36
:1094800094F85D00C00710D1E068810703D5502132
:109490004020FDF721FB40F00200E06094F85A0004
:1094A000401C84F85A00A4F85860607F012802D15B
:1094B000667784F85660002070BD000069B5010031
:1094C000044A9268C2F580534B43424303EB223077
:1094D00070470000C0000020F8B54468064604F15B
:1094E000800500F07BF894F8281001291BD1002892
:1094F00019D0706890F852118DF800100099009101
:109500009DF8001000F5A57000290CD12188A0F865
:109510000910697EC172A97E0173BDE8F84002227C
:1095200001490AF0E7BCF8BDEDB5010000F50061A6
:109530000D4A10B500F50060091300134BB292F903
:1095400000404042002140B2A34202DA92F90210E8
:1095500005E092F90140A34204DD92F903100844AA
:1095600000F30701084610BDC00000202DE9FC41B2
:10957000A0F5F575A0F5B57495F86B000BF007FF35
:109580000646A068FFF7D2FF070021D020460BF067
:1095900034F800281CD0288869460AF05EF918B112
:1095A00085217A20FDF798FA761CF1B202233A461B
:1095B00068460BF00BFF00280AD1064806490079DF
:1095C000A0FB01650DF03CFA80196941C4E9000176
:1095D000BDE8FC81C000002040420F002DE9F041B1
:1095E0000746FFF7A9F97C68054684F8990080349E
:1095F0007F2842D094F833007E68A0762946A06880
:10960000FFF75EFFA0601E484079C0B1786800F1A6
:109610008008D0F88800FFF789FF80B140460AF043
:10962000ECFF60B1786800F5A578074604F0EAF928
:1096300087F86B00134908F1A0000AF058FC94F970
:109640001B000021281A00D5404296F829208242AA
:1096500010DCFF2A0ED0207F401CC0B2207796F885
:109660002A20904202D8E07E7F2803D10020E576B0
:10967000207701210846BDE8F0810020FBE70000CB
:10968000C00000206D050100F8B50AF0D2FF0446C5
:109690000D466A4600F062F808B10120F8BD0F4897
:1096A000037841788B4201D10020F8BD1A46416809
:1096B00008E000BF01EBC206521E56E9027CC6E973
:1096C000007CD2B29DF80060B242F3D8F2B201EB56
:1096D000C2015B1CC1E900450370DEE7CC0000203D
:1096E00010B5420703D063214820FDF7F5F920B1FA
:1096F000034A5170506000201070C80010BD000077
:10970000CC00002038B50AF094FF6A4600F026F835
:10971000002814D00A4A1078401EC1B211709DF87A
:109720000000526808E000BF02EBC003401CD3E910
:109730000245C3E90045C0B28842F5D3012038BDD7
:10974000CC0000200149002008707047CC000020A8
:109750000148407870470000CC000020F0B5204D53
:10976000002313702B7823B300245B1EDBB2D5F8E3
:1097700004C00BE0E5186D080CEBC506D6E90076D1
:109780003F1A8E4101D22C4600E02B461D1B012DB5
:10979000F0DC0CEBC406D6E9005680EA050781EA46
:1097A000060E57EA0E0705D0451B71EB060503D2DE
:1097B000147010E0147011E00CEBC305D5E90045FE
:1097C00080EA040681EA05073E4306D0001BA94152
:1097D00000D35B1C13700020F0BD13700120F0BD9E
:1097E000CC0000202DE9F0410446007C02283AD04C
:1097F000032838D00026A8B3022836D00127082530
:109800004FF000085EB194F8570004F158010AF0D7
:109810000BF80546082802D0FEF7EEFD60B137B31D
:1098200057B1E07D00281BD0D4F81100C4F85100D6
:10983000B4F81500A4F85500267684F850706576C3
:10984000FEF7DCFE0E49A0FB012304F148000BF0FB
:1098500037F884F85E800021204600F0F3FB0120F9
:10986000BDE8F08101E00126C5E70027C7E704F164
:1098700051010020FEF748F80028DDD1F0E7000094
:1098800040420F0030B50C468DB0054601462422FB
:1098900002A80DF013FA0BA80BF06FF8A07A8DF860
:1098A000180020788DF80800B4F80100ADF8000029
:1098B0009DF8000000F00101C0F3400241EA4201BE
:1098C000C0F3800241EA8201C0F3C00241EAC20152
:1098D000C0F3001241EA0211C0F3401241EA421102
:1098E000C0F3801041EA8010ADF80A00207D012805
:1098F00006D0022804D040F2A6210620FDF7ECF89D
:109900008DF80C00617A0BA80BF01EF8207D012168
:10991000022802D1607D401CC1B2A07E401CC2B2B0
:109920000BA80AF0D8FFBDF80A00000701D50020F7
:1099300020E00BA80AF0E1FFBDF80A10282200F091
:109940002BFE40F2712100F2DD20B0FBF1F0484324
:10995000D4F8021040F271230A0A40F271214A43FE
:10996000D4F80510090A5943904201D8049204E042
:10997000884201D8049000E00491A07C8DF8170083
:10998000207E012800D000208DF81400286B09F0FB
:10999000CDFD286B09F072FE242202A928460DF0A5
:1099A0008DF90B98A862BDF83000A885E07A68B1FF
:1099B00002280BD05FF0010085F85700E068A86529
:1099C000208AA5F85C000DB0002030BD0020F3E730
:1099D0000A4A10B500211170094C606000F022F8AD
:1099E00010B140F21D3104E0A068002804D14FF40A
:1099F00048712D20FDF770F810BD000008580020B8
:109A0000D400002002490148886070478015010099
:109A1000D4000020024908608968096808470000EE
:109A2000D4000020084810B5007810B10C2420465E
:109A300010BD00241822214603480DF0B9F903F0A7
:109A40002FFE03F053FCF2E708580020044910B53C
:109A50000978012901D100F061FC002010BD00004F
:109A60000858002004490348086005490348086075
:109A70007047000069130100E00000208D1801000C
:109A8000E400002010B504468078C0F3C00058B14F
:109A90003C23FF222046E16900F040FA02220449FB
:109AA00004F16A000AF026FA012084F8690010BD6A
:109AB0004DB801002DE9F0410F00044623D004F118
:109AC000280005460AF042FFB0B9A078C0F3C000F4
:109AD00050B328460AF011FF064628460AF036FF22
:109AE000301AC0B20AF087FF014635484268114477
:109AF000416028460AF048FF28460AF00AFF01465E
:109B000020460AF0D2FE2F4D94F85E60002168686E
:109B100001800AF083FE6088132813D009DC102826
:109B200036D0122809D131E02046BDE8F04100F0DE
:109B3000F5BB15280FD01D280DD040F24A612D200D
:109B4000FCF7CAFF002168680AF052F80121686832
:109B50000AF064FE20E0012168680AF049F801215A
:109B600068680AF05BFE36B104F15F0168680AF0CC
:109B70005AF8012106E004F1580168680AF053F828
:109B800094F8571068680AF054F805E0062100E0E0
:109B9000022168680AF02CF8204600F0CFFC6088AB
:109BA0001D2807D0152805D094F83820616B686807
:109BB0000AF00EF839462046BDE8F04100F084BABC
:109BC00008580020D40000202DE9F0412A4D2978C2
:109BD000022905D02978032902D040F6EF4121E07F
:109BE000264C0027616891F800C00CF00F0638B3CE
:109BF0002068093100F1510390F850204FEADC1041
:109C000009F08AFDE0B13946606809F0D1FFB8B1CA
:109C10002A7820683146022A07D02A78032A04D0FD
:109C200040F6C8412D20FCF757FFA2682B785269F7
:109C30006FF0070606EB8303D2589047064600E014
:109C40000126A87B18B103F02BFD03F04FFB002E7B
:109C50000FD020680AF0E5FE30B103F043FDA068A4
:109C60008068BDE8F04100472068BDE8F04100F0A1
:109C700055BBBDE8F081000008580020D40000204A
:109C800010B5032902D005290AD102E000F0D4FB67
:109C900003E00449096809B1884708B1002010BDF4
:109CA000012010BDE0000020094A0300106801D027
:109CB00000F034BB002909D09168064A096912787E
:109CC0006FF00F0303EB82028958084770470000CA
:109CD000D40000200858002070B5044640881028A1
:109CE00019D0104DA87B20B103F020FB402003F0D9
:109CF000E5FC0D48406803F06BFFA078400704D4F2
:109D000000212279084603F0EDFF002003F010FE49
:109D10000220287070BD2046BDE870400121FFF789
:109D2000C9BE000008580020D400002010B500F083
:109D300027F8114C20680AF074FE002820680BD028
:109D40000E490A78022A0BD00A78032A08D040F676
:109D5000FA312D20FCF7C0FEBDE8104000F0DEBA5D
:109D6000A2680978D2686FF0070303EB81015158AC
:109D7000BDE8104008470000D4000020085800202B
:109D8000054810B5807B002805D003F089FCBDE8AC
:109D9000104003F0ABBA10BD085800202DE9F04187
:109DA000584D044686B02878E8BB2078FF284BD071
:109DB0004FF00008A5F80C80C5F8048085F80180F4
:109DC00085F8028084F869804F4B504E0FCB8DE8A8
:109DD0000F00B06840680390684603F07DFD03F013
:109DE00051FE03F05DFC03F081FA494803F0ACFF3B
:109DF000484803F0B3FF04F1280007460AF0C4FD09
:109E000038460AF086FD014620460AF04EFD94F9D8
:109E10000E0003F0BBFE2179002003F0EDFC0121D0
:109E2000A860A8B100E00FE004F13401206B09F054
:109E3000ECFB074604F13C01206B09F0E9FB4FB154
:109E400094F8201051B905E00C2006B0BDE8F0816F
:109E5000297055E020B194F8210008B1012700E0F5
:109E60000027207E10B9A07840071CD5D4E9121035
:109E70006FF00042504070EA010106D00CF0E0FDA6
:109E8000D4E91223801A994100D267B1FEF7B6FBDC
:109E90002149A0FB012304F148000AF011FD012132
:109EA000204600F0CFF87068C01C09F0B0FCA87321
:109EB000A078C00724D04046414660F31741CDE961
:109EC0000481FF20E873E66906F10A0713E0049CA9
:109ED000B44210D0727A607A3B4604F10A0109F06C
:109EE0001BFC40B1A078E873D4F803002861B4F8F3
:109EF0000700A88204E004A8FDF7F2F80028E6D0E5
:109F00000020A2E70858002060150100D4000020BE
:109F1000D6BE898E5555550040420F0070B5044697
:109F200080F873300888A4F87400FF2084F891004A
:109F30004FF6FF7016460D46A4F89200002B43D151
:109F4000286909F09BFCA4F88A00288BA4F88C00EF
:109F5000688BA4F88E0095F80E0284F89000207E9D
:109F6000002188B194F8500001280DD194F85620B2
:109F7000B0EB921F08D1D4F85100C4F87E00B4F8B9
:109F80005500A4F8820003E0C4F87E10A4F8821003
:109F90001548FF2E40680278C2F3801284F87720BB
:109FA00018D050F8031FC4F884108088A4F88800E3
:109FB00004F17802511E3046FEF7A2FA28B114F8D7
:109FC000770F40F00200207070BD40F64D412D200B
:109FD000FCF782FD50F8032FA2678088A4F87C006C
:109FE00044F8841FA18070BDD400002010B5044641
:109FF000FFF7D4FE002808D104480078012803D0D8
:10A0000000212046FFF756FD002010BD0858002013
:10A010000A4810B50A490468087800280CD0087866
:10A02000022802D00878032801D1FFF7A9FE2046B4
:10A03000BDE8104000F072B910BD0000D40000204F
:10A04000085800202DE9F04104468846407EFEF77E
:10A05000EBF90546207E012688B185B1607EFEF7CA
:10A06000CBF960B904F1510184F8506042460F46C3
:10A07000284609F071FB617E3846FEF7E1F9A078C9
:10A0800040071DD5607EFEF70FFA050018D0607EF0
:10A09000FEF7BEF9002813D184F85E6004F15F0179
:10A0A00042460C46284609F057FB2146054C60689D
:10A0B00009F0B9FD6068BDE8F041012109F0B9BDC2
:10A0C000BDE8F081D40000202DE9F0410446294884
:10A0D0000D46406803F07CFD274E0420307055B3D8
:10A0E0006088102823D004F128008046B5680AF063
:10A0F00004FC074640460AF029FC381A401EC0B24C
:10A100006188282200F068FA0544A078C0F3C000F6
:10A1100030B1706805440AF072FC2844C4F8D000DD
:10A1200022792946002003F06BFD20B90CE021794B
:10A13000002003F027FB6088132811D007DC1028CB
:10A1400015D0122807D10BE040F6655105E015281F
:10A1500006D01D2804D040F679512D20FCF7BCFC18
:10A160002279BDE8F0410121002003F0BBBDBDE82C
:10A17000F0810000D40000200858002038B50446C3
:10A1800090F8B6000B468DF80000009800909DF8FE
:10A19000000000282ED1207884F8B700FF2B12D0C1
:10A1A00004F1B902511E1846FEF7AAF930B194F82D
:10A1B000B80040F0020084F8B80013E040F6C27125
:10A1C0002D20FCF789FC0C4840680178C1F3801110
:10A1D00084F8B810D0F80310C4F8B910B0F807002C
:10A1E000A4F8BD0004F1AE00BDE8384002220349E6
:10A1F00009F080BE38BD0000D400002097B80100EF
:10A200002DE9FE4316460446032904D094F868005D
:10A2100008B1012000E000200025032903D0012718
:10A22000052905D008E0A1780227C1F3400101E02B
:10A23000A178C90700296BD0002869D13548DFF81B
:10A24000D890807B80B109F0E5FA3070FF2814D0F7
:10A25000C0B26A4602A9FEF753F948B169469DF8B3
:10A2600008000AF0DFF905463078FF2805D00DE038
:10A2700040F645712D20FCF72FFCD9F8041011F899
:10A28000030BC0F380100AF0CDF90546D9F804108D
:10A2900094F8572004F1580311F8030BC0F3801011
:10A2A00009F03AFAD9F80410804611F8030BC0F30C
:10A2B000801009F0B9FA8146FEF7B4F938B1484682
:10A2C000FEF7F2F818B14846FEF7A2F838B10021BF
:10A2D0003078FF280CD0B8F1000F05D101E0012142
:10A2E000F6E7627E824201D1012003E0002001E016
:10A2F00028EA0100A278520701D530B908E039B93F
:10A300001DB9E07B08B1B84202D10120BDE8FE834F
:10A310000020FBE708580020D400002070B5044658
:10A32000C08D104D401CE085A87B002620B103F0B5
:10A33000B7F902F0DBFFAE732E7094F8690008B134
:10A3400001210AE0607B38B1E18D884204D8012107
:10A3500020460AF078FB70BD00212046BDE8704021
:10A360000AF071BB08580020F8B50446FF208DF8AC
:10A37000000001266A4605212046FFF741FF60B133
:10A38000294D284F6968FA7B07F1100311F8030B78
:10A39000C0F3801009F0C0F910B100263046F8BDB6
:10A3A0006A68E069127810F8A51FC2F340121140E4
:10A3B000017001222046E16900F078F800239DF841
:10A3C00000202046E169FFF7A9FD0222174904F1A8
:10A3D0006A0009F08FFDE06902220188A4F8AB1041
:10A3E00090F8A50084F8AD00114904F1A20009F02D
:10A3F00081FD0021E06939700E490B6813B100221C
:10A40000214698476868E169D0F8032041F8032F96
:10A41000B0F807208A800078E169C0F38010887066
:10A42000BCE7000008580020D40000204DB801000F
:10A430003BB80100E4000020F8B50446FF208DF889
:10A44000000001256A4603212046FFF7D9FEE8B146
:10A45000207B20B19DF800102046FFF78FFE0D4EA7
:10A46000002170680180042109F0C2FB204600F041
:10A4700065F894F84020E16B706809F0F0FB06493C
:10A4800005200870706803F0A3FB00E00025284653
:10A49000F8BD0000D4000020085800200248012127
:10A4A0000068FFF707BB0000D40000202DE9F04151
:10A4B000214E80460C467068154650F80F1F6161AA
:10A4C000416821F07F41E161408909F0D3F90746F5
:10A4D000206170683946807D09F0C7FAA0847068F1
:10A4E0003946B0F8170009F0BCFA2062706830F8FD
:10A4F0001B1F2183418861834168C4F8A610017A3B
:10A5000084F8AA10417A01F01F0184F8B110407A52
:10A51000400984F80E0204F1620005724572FF21C1
:10A5200081720021363809F058FD98F90E10204646
:10A53000BDE8F04109F046BAD400002070B5074DDF
:10A54000044600F15101686809F07AFB94F8501054
:10A550006868BDE8704009F079BB0000D4000020B5
:10A560002D0D0100C90B0100A90C01000000000025
:10A57000810C0100D90C01002FB8010035B8010091
:10A58000ED0F0100111001009D1401007C15010068
:10A59000741501007015010010B5421E022A01D980
:10A5A000CA2109E0401E102909D012290CD0132914
:10A5B0000AD0152905D0D8212F20FCF78DFA05499E
:10A5C00004E00449891D01E00249891F31F81000A7
:10A5D00010BD000016BA0100421E10B5D2B2012A09
:10A5E00003D91D2901D0EE210DE0132913D004DC7D
:10A5F00010290BD0122904D10DE0152908D01D29EE
:10A600000ED04FF481712F20FCF766FA074804E062
:10A610000648083001E00548001D30F8120010BD62
:10A6200040F25A3110FB01F010BD000004BA0100E5
:10A630002DE9F041044690F8E00016460F46002848
:10A640005ED121464F4806F02DFB0546202857D005
:10A650005022002104F1C0000CF0AAFB84F8C05085
:10A660000125C4F8C47084F8E05037B1FEF722FD2C
:10A6700000F00700401C87F83C0220460AF0C4FBAB
:10A68000A4F8F000022084F8F200A84684F8F35001
:10A69000002504F8E85F06F07FFF07460CF0C7F9D5
:10A6A0002189E83C884200D808463844CF3087B238
:10A6B00020460AF07DF830B30BF053FE00F5CD6074
:10A6C00081B2304607F07CF83044C4F8EC0088349E
:10A6D0000CF0B6F9C0196941C4E91C0184F8408046
:10A6E00024F8665C01200AF086F900F58B70301AB8
:10A6F00060644FF0FF304108C4E91E01883C25E04A
:10A700000C20BDE8F081002120460AF0DDFADFF8D8
:10A710007880C4F8EC000020B8F8041049B1618CCE
:10A7200039B1FEF7C7FCB8F80410B0FBF1F201FB39
:10A73000120007440CF084F9C0196941C4E93E01D4
:10A74000BEB1801951EB0501C4E9400194F8C00085
:10A7500004F1E8010AF056FB78B1D4E93E01C4E9FE
:10A760003601A4F8E250002120460AF04FF80020FC
:10A77000C7E74FF0FF304108E6E74FF4F6713020AD
:10A78000FCF7AAF9EBBE0100E8000020014988802F
:10A7900070470000E80000200548002101700122F8
:10A7A0008270417042F2107181800AF08CB9000011
:10A7B000E80000200149087070470000E800002010
:10A7C00008494FF47A72B1FBF2F110B501F52A7124
:10A7D00009F01CFC40F64801884200D3084680B2CC
:10A7E00010BD00007D52010010B503F005F90549C8
:10A7F0008A68904201D8487808B1002010BD012035
:10A8000010BD0000E800002010B50446062938D22B
:10A81000DFE801F0051103141532002106E0D4F839
:10A820009C0210B120460AF080FA01212046BDE8C2
:10A83000104000F02BB9032084F84C0210BD03F047
:10A84000E7F8C4F89C0294F86B0003F0A5F9D4F87B
:10A850009C12884204D940F2DA313020FCF73CF9EE
:10A8600094F86B0003F098F9D4F89C12081A064982
:10A870008A681044886010BD2046BDE810400AF088
:10A88000DDBB40F2A371E8E7E80000202DE9F041CC
:10A890000C46804612B140F2CD7135E003F0ACF8C1
:10A8A0000746002084F8C800D4E93E5684F8E0004A
:10A8B000012084F8E10054F8C40F0121FDF794FF52
:10A8C0002068C0F88052C0F88462216814F8040C33
:10A8D00081F894022068C0F898722068C0E9A256F6
:10A8E00054F8C4090AF0B6FB10B140F25A710BE0FB
:10A8F0000AF014FA94F8C0004246064906F08AF8B5
:10A90000002804D140F2B6713020FCF7E5F8BDE82C
:10A91000F081000057BF010010B50C2804D340F2AD
:10A920005B310620FCF7D8F8014931F8100010BD62
:10A93000E02001002DE9FC41174D01206870002442
:10A940004FF6FF760BE00021FCF75EFB07000CD012
:10A9500097F8940206F08EF838460AF0B9FA2046C5
:10A9600064F31740CDE900400EE04FF491713020C0
:10A97000FCF7B2F8009838B190F89412202903D06F
:10A980000088B042DFD104E06846FCF7A9FB00284C
:10A99000F0D06C70BDE8FC81E80000202DE9F047A4
:10A9A000044639481E46904680788946002500288E
:10A9B00063D006F0C5FEE0B3B4F8380202285CD3D9
:10A9C00094F84C02022858D094F8620288BB94F89C
:10A9D0000E02FFF7A1FF00F5C86081B2318094F844
:10A9E0004C02002701280DD0206906F0E9FEB4F8DA
:10A9F00026224244A2EB0901D4F85422821A01FB18
:10AA0000027535E094F8A100032839D00121002017
:10AA100008F0C6FF216A47183188D4F8440206F0CE
:10AA2000CFFED4F84022D4F84812821A01FB025516
:10AA300000E022E0C4F840023188384606F0C0FE4B
:10AA4000D4F85012C4F85002411A0D4431882069DC
:10AA500006F0B6FEB4F826224244A2EB0901D4F86F
:10AA60004822891AD4F85422821A491E01FB025541
:10AA7000C4F85402012084F862022846BDE8F08739
:10AA8000D4F84402C6E70000E800002038B50025ED
:10AA90000446012902D11048407870B1042084F89E
:10AAA0004C0200BF0AF03AF9A4F89252B4F89400AC
:10AAB000A4F85E0284F8615238BD0095B4F814120F
:10AAC00001230022204600F009F80028EAD040F2D5
:10AAD00017713020FCF700F8E80000202DE9FF4F47
